{
  "contractName": "Transport",
  "abi": [
    {
      "constant": false,
      "inputs": [
        {
          "name": "_tripId",
          "type": "uint256"
        },
        {
          "name": "_tickets",
          "type": "uint256"
        },
        {
          "name": "_buyerAddr",
          "type": "address"
        },
        {
          "name": "_price",
          "type": "uint256"
        },
        {
          "name": "_time",
          "type": "uint256"
        }
      ],
      "name": "emitPurchasedTicket",
      "outputs": [],
      "payable": false,
      "stateMutability": "nonpayable",
      "type": "function"
    },
    {
      "constant": false,
      "inputs": [
        {
          "name": "_tripId",
          "type": "uint256"
        },
        {
          "name": "updateType",
          "type": "string"
        }
      ],
      "name": "emitTripUpdateEvent",
      "outputs": [],
      "payable": false,
      "stateMutability": "nonpayable",
      "type": "function"
    },
    {
      "constant": true,
      "inputs": [],
      "name": "tokenAddress",
      "outputs": [
        {
          "name": "",
          "type": "address"
        }
      ],
      "payable": false,
      "stateMutability": "view",
      "type": "function"
    },
    {
      "constant": false,
      "inputs": [
        {
          "name": "_tripId",
          "type": "uint256"
        },
        {
          "name": "_tickets",
          "type": "uint256"
        },
        {
          "name": "_buyerAddr",
          "type": "address"
        }
      ],
      "name": "emitRefundedTickets",
      "outputs": [],
      "payable": false,
      "stateMutability": "nonpayable",
      "type": "function"
    },
    {
      "constant": true,
      "inputs": [],
      "name": "floteaIcoAddress",
      "outputs": [
        {
          "name": "",
          "type": "address"
        }
      ],
      "payable": false,
      "stateMutability": "view",
      "type": "function"
    },
    {
      "constant": true,
      "inputs": [
        {
          "name": "",
          "type": "uint256"
        }
      ],
      "name": "trips",
      "outputs": [
        {
          "name": "addr",
          "type": "address"
        },
        {
          "name": "enabled",
          "type": "bool"
        },
        {
          "name": "exist",
          "type": "bool"
        }
      ],
      "payable": false,
      "stateMutability": "view",
      "type": "function"
    },
    {
      "constant": true,
      "inputs": [
        {
          "name": "",
          "type": "address"
        }
      ],
      "name": "tripsId",
      "outputs": [
        {
          "name": "",
          "type": "uint256"
        }
      ],
      "payable": false,
      "stateMutability": "view",
      "type": "function"
    },
    {
      "inputs": [
        {
          "name": "_tokenAddress",
          "type": "address"
        },
        {
          "name": "_votingCarrierAddress",
          "type": "address"
        },
        {
          "name": "_carriersAddress",
          "type": "address"
        },
        {
          "name": "_floteaIcoAddress",
          "type": "address"
        }
      ],
      "payable": false,
      "stateMutability": "nonpayable",
      "type": "constructor"
    },
    {
      "anonymous": false,
      "inputs": [
        {
          "indexed": false,
          "name": "votingCarrier",
          "type": "address"
        },
        {
          "indexed": false,
          "name": "carriers",
          "type": "address"
        }
      ],
      "name": "TransportInitialized",
      "type": "event"
    },
    {
      "anonymous": false,
      "inputs": [
        {
          "indexed": false,
          "name": "_companyWallet",
          "type": "address"
        },
        {
          "indexed": false,
          "name": "_company",
          "type": "bytes32"
        },
        {
          "indexed": false,
          "name": "_web",
          "type": "bytes32"
        },
        {
          "indexed": false,
          "name": "_index",
          "type": "uint256"
        }
      ],
      "name": "NewCarrier",
      "type": "event"
    },
    {
      "anonymous": false,
      "inputs": [
        {
          "indexed": false,
          "name": "_companyWallet",
          "type": "address"
        },
        {
          "indexed": false,
          "name": "_company",
          "type": "bytes32"
        },
        {
          "indexed": false,
          "name": "_web",
          "type": "bytes32"
        },
        {
          "indexed": false,
          "name": "_index",
          "type": "uint256"
        }
      ],
      "name": "CarrierUpdated",
      "type": "event"
    },
    {
      "anonymous": false,
      "inputs": [
        {
          "indexed": false,
          "name": "_trip",
          "type": "address"
        },
        {
          "indexed": false,
          "name": "_tripId",
          "type": "uint256"
        },
        {
          "indexed": false,
          "name": "_eventType",
          "type": "string"
        }
      ],
      "name": "TripEvent",
      "type": "event"
    },
    {
      "anonymous": false,
      "inputs": [
        {
          "indexed": false,
          "name": "_trip",
          "type": "address"
        },
        {
          "indexed": false,
          "name": "_tripId",
          "type": "uint256"
        },
        {
          "indexed": false,
          "name": "_tickets",
          "type": "uint256"
        },
        {
          "indexed": false,
          "name": "_buyerAddr",
          "type": "address"
        },
        {
          "indexed": false,
          "name": "_price",
          "type": "uint256"
        },
        {
          "indexed": false,
          "name": "_time",
          "type": "uint256"
        }
      ],
      "name": "PurchasedTickets",
      "type": "event"
    },
    {
      "anonymous": false,
      "inputs": [
        {
          "indexed": false,
          "name": "_trip",
          "type": "address"
        },
        {
          "indexed": false,
          "name": "_tripId",
          "type": "uint256"
        },
        {
          "indexed": false,
          "name": "_tickets",
          "type": "uint256"
        },
        {
          "indexed": false,
          "name": "_buyerAddr",
          "type": "address"
        }
      ],
      "name": "RefundedTickets",
      "type": "event"
    },
    {
      "constant": false,
      "inputs": [],
      "name": "approve",
      "outputs": [],
      "payable": false,
      "stateMutability": "nonpayable",
      "type": "function"
    },
    {
      "constant": true,
      "inputs": [],
      "name": "tripsLength",
      "outputs": [
        {
          "name": "length",
          "type": "uint256"
        }
      ],
      "payable": false,
      "stateMutability": "view",
      "type": "function"
    },
    {
      "constant": true,
      "inputs": [],
      "name": "getCarriers",
      "outputs": [
        {
          "name": "",
          "type": "address"
        }
      ],
      "payable": false,
      "stateMutability": "view",
      "type": "function"
    },
    {
      "constant": false,
      "inputs": [
        {
          "name": "_enabled",
          "type": "bool"
        }
      ],
      "name": "setEnabled",
      "outputs": [],
      "payable": false,
      "stateMutability": "nonpayable",
      "type": "function"
    },
    {
      "constant": false,
      "inputs": [
        {
          "name": "isNew",
          "type": "bool"
        },
        {
          "name": "_companyWallet",
          "type": "address"
        },
        {
          "name": "_company",
          "type": "bytes32"
        },
        {
          "name": "_web",
          "type": "bytes32"
        },
        {
          "name": "_index",
          "type": "uint256"
        }
      ],
      "name": "emitCarrier",
      "outputs": [],
      "payable": false,
      "stateMutability": "nonpayable",
      "type": "function"
    },
    {
      "constant": false,
      "inputs": [
        {
          "components": [
            {
              "name": "fromLat",
              "type": "bytes10"
            },
            {
              "name": "fromLng",
              "type": "bytes11"
            },
            {
              "name": "toLat",
              "type": "bytes10"
            },
            {
              "name": "toLng",
              "type": "bytes11"
            }
          ],
          "name": "_tripLoc",
          "type": "tuple"
        },
        {
          "name": "_price",
          "type": "uint256"
        },
        {
          "name": "_schedule",
          "type": "bytes[]"
        },
        {
          "name": "_places",
          "type": "uint16"
        },
        {
          "name": "_description",
          "type": "bytes"
        },
        {
          "name": "_routeType",
          "type": "uint8"
        },
        {
          "name": "_enabled",
          "type": "bool"
        }
      ],
      "name": "createTrip",
      "outputs": [],
      "payable": false,
      "stateMutability": "nonpayable",
      "type": "function"
    }
  ],
  "bytecode": "0x60806040523480156200001157600080fd5b506040516080806200764e833981018060405262000033919081019062000269565b83600160006101000a81548173ffffffffffffffffffffffffffffffffffffffff021916908373ffffffffffffffffffffffffffffffffffffffff16021790555080600260006101000a81548173ffffffffffffffffffffffffffffffffffffffff021916908373ffffffffffffffffffffffffffffffffffffffff160217905550600083905082600560006101000a81548173ffffffffffffffffffffffffffffffffffffffff021916908373ffffffffffffffffffffffffffffffffffffffff160217905550600560009054906101000a900473ffffffffffffffffffffffffffffffffffffffff1673ffffffffffffffffffffffffffffffffffffffff1663e1c7392a6040518163ffffffff167c0100000000000000000000000000000000000000000000000000000000028152600401600060405180830381600087803b1580156200018257600080fd5b505af115801562000197573d6000803e3d6000fd5b505050508073ffffffffffffffffffffffffffffffffffffffff166319ab453c600560009054906101000a900473ffffffffffffffffffffffffffffffffffffffff166040518263ffffffff167c0100000000000000000000000000000000000000000000000000000000028152600401620002149190620002e6565b600060405180830381600087803b1580156200022f57600080fd5b505af115801562000244573d6000803e3d6000fd5b5050505050505050506200034b565b600062000261825162000337565b905092915050565b600080600080608085870312156200028057600080fd5b6000620002908782880162000253565b9450506020620002a38782880162000253565b9350506040620002b68782880162000253565b9250506060620002c98782880162000253565b91505092959194509250565b620002e08162000303565b82525050565b6000602082019050620002fd6000830184620002d5565b92915050565b6000620003108262000317565b9050919050565b600073ffffffffffffffffffffffffffffffffffffffff82169050919050565b6000620003448262000317565b9050919050565b6172f3806200035b6000396000f3fe608060405260043610620000cd576000357c0100000000000000000000000000000000000000000000000000000000900480630323d5ce14620000d257806312424e3f14620001025780632dcac642146200011c578063328d8f72146200014a578063454a496d1462000178578063806523ba14620001a85780638e91e61114620001d65780639d76ea581462000204578063ca52055e1462000234578063cf15dbc41462000262578063f6824a7c1462000292578063f69c9ab014620002d8578063ffbb6bbb1462000306575b600080fd5b348015620000df57600080fd5b50620000ea6200034a565b604051620000f9919062001bcb565b60405180910390f35b3480156200010f57600080fd5b506200011a62000374565b005b3480156200012957600080fd5b50620001486004803603620001429190810190620015ac565b6200044c565b005b3480156200015757600080fd5b50620001766004803603620001709190810190620012d1565b62000597565b005b3480156200018557600080fd5b50620001906200070d565b6040516200019f919062001c72565b60405180910390f35b348015620001b557600080fd5b50620001d46004803603620001ce9190810190620012fd565b6200071a565b005b348015620001e357600080fd5b50620002026004803603620001fc9190810190620014fc565b62000842565b005b3480156200021157600080fd5b506200021c62000984565b6040516200022b91906200199a565b60405180910390f35b3480156200024157600080fd5b506200026060048036036200025a919081019062001556565b620009aa565b005b3480156200026f57600080fd5b506200027a62000aef565b6040516200028991906200199a565b60405180910390f35b3480156200029f57600080fd5b50620002be6004803603620002b89190810190620014d0565b62000b15565b604051620002cf9392919062001ad2565b60405180910390f35b348015620002e557600080fd5b50620003046004803603620002fe9190810190620013ee565b62000b85565b005b3480156200031357600080fd5b506200033260048036036200032c9190810190620012a5565b62000f2a565b60405162000341919062001c72565b60405180910390f35b6000600560009054906101000a900473ffffffffffffffffffffffffffffffffffffffff16905090565b600160009054906101000a900473ffffffffffffffffffffffffffffffffffffffff1673ffffffffffffffffffffffffffffffffffffffff1663095ea7b3600260009054906101000a900473ffffffffffffffffffffffffffffffffffffffff1664174876e8006040518363ffffffff167c01000000000000000000000000000000000000000000000000000000000281526004016200041692919062001b5c565b600060405180830381600087803b1580156200043157600080fd5b505af115801562000446573d6000803e3d6000fd5b50505050565b60008060003373ffffffffffffffffffffffffffffffffffffffff1673ffffffffffffffffffffffffffffffffffffffff16815260200190815260200160002054905060008111806200050857503373ffffffffffffffffffffffffffffffffffffffff1660046000815481101515620004c257fe5b9060005260206000200160000160009054906101000a900473ffffffffffffffffffffffffffffffffffffffff1673ffffffffffffffffffffffffffffffffffffffff16145b15156200054c576040517f08c379a0000000000000000000000000000000000000000000000000000000008152600401620005439062001c50565b60405180910390fd5b7f08cdff2d5568fedc99785db826cc06fdaa0e53e1fd32271717d8dd1ee73dd500338787878787604051620005879695949392919062001a65565b60405180910390a1505050505050565b60006004805490501180156200065357503373ffffffffffffffffffffffffffffffffffffffff1660046000803373ffffffffffffffffffffffffffffffffffffffff1673ffffffffffffffffffffffffffffffffffffffff168152602001908152602001600020548154811015156200060d57fe5b9060005260206000200160000160009054906101000a900473ffffffffffffffffffffffffffffffffffffffff1673ffffffffffffffffffffffffffffffffffffffff16145b151562000697576040517f08c379a00000000000000000000000000000000000000000000000000000000081526004016200068e9062001c2e565b60405180910390fd5b8060046000803373ffffffffffffffffffffffffffffffffffffffff1673ffffffffffffffffffffffffffffffffffffffff16815260200190815260200160002054815481101515620006e657fe5b9060005260206000200160000160146101000a81548160ff02191690831515021790555050565b6000600480549050905090565b3373ffffffffffffffffffffffffffffffffffffffff16600560009054906101000a900473ffffffffffffffffffffffffffffffffffffffff1673ffffffffffffffffffffffffffffffffffffffff16141515620007af576040517f08c379a0000000000000000000000000000000000000000000000000000000008152600401620007a69062001c0c565b60405180910390fd5b8415620007fb577f7da3acbab78e2cfa0aac005e5b53955fce84566e521fa040c614279d2593d9a684848484604051620007ed949392919062001b0f565b60405180910390a16200083b565b7fb8a1ffc97098af18c5712ef62fd620b94caefb188f07e05ca8d268fdcfb8450e8484848460405162000832949392919062001b0f565b60405180910390a15b5050505050565b60008060003373ffffffffffffffffffffffffffffffffffffffff1673ffffffffffffffffffffffffffffffffffffffff1681526020019081526020016000205490506000811180620008fe57503373ffffffffffffffffffffffffffffffffffffffff1660046000815481101515620008b857fe5b9060005260206000200160000160009054906101000a900473ffffffffffffffffffffffffffffffffffffffff1673ffffffffffffffffffffffffffffffffffffffff16145b151562000942576040517f08c379a0000000000000000000000000000000000000000000000000000000008152600401620009399062001c50565b60405180910390fd5b7fac79b139c3a0deca65a4720eeaa2fa0375948035a7d6706026a955e46fbd0b123384846040516200097793929190620019d4565b60405180910390a1505050565b600160009054906101000a900473ffffffffffffffffffffffffffffffffffffffff1681565b60008060003373ffffffffffffffffffffffffffffffffffffffff1673ffffffffffffffffffffffffffffffffffffffff168152602001908152602001600020549050600081118062000a6657503373ffffffffffffffffffffffffffffffffffffffff166004600081548110151562000a2057fe5b9060005260206000200160000160009054906101000a900473ffffffffffffffffffffffffffffffffffffffff1673ffffffffffffffffffffffffffffffffffffffff16145b151562000aaa576040517f08c379a000000000000000000000000000000000000000000000000000000000815260040162000aa19062001c50565b60405180910390fd5b7fbdba177396c026c66d2b007b8933626fa8f5cd439af0ab1e5be8c37f509e753c3385858560405162000ae1949392919062001a18565b60405180910390a150505050565b600260009054906101000a900473ffffffffffffffffffffffffffffffffffffffff1681565b60048181548110151562000b2557fe5b906000526020600020016000915090508060000160009054906101000a900473ffffffffffffffffffffffffffffffffffffffff16908060000160149054906101000a900460ff16908060000160159054906101000a900460ff16905083565b600060606000600560009054906101000a900473ffffffffffffffffffffffffffffffffffffffff1673ffffffffffffffffffffffffffffffffffffffff16637f2f3fc5336040518263ffffffff167c010000000000000000000000000000000000000000000000000000000002815260040162000c049190620019b7565b60006040518083038186803b15801562000c1d57600080fd5b505afa15801562000c32573d6000803e3d6000fd5b505050506040513d6000823e3d601f19601f8201168201806040525062000c5d91908101906200137f565b92509250925082158290151562000cac576040517f08c379a000000000000000000000000000000000000000000000000000000000815260040162000ca3919062001be8565b60405180910390fd5b506000816004805490508c8c8c8c8c8c8c62000cc762000f42565b62000cdb9998979695949392919062001cbc565b604051809103906000f08015801562000cf8573d6000803e3d6000fd5b509050600560009054906101000a900473ffffffffffffffffffffffffffffffffffffffff1673ffffffffffffffffffffffffffffffffffffffff166371f9251483836040518363ffffffff167c010000000000000000000000000000000000000000000000000000000002815260040162000d7692919062001c8f565b600060405180830381600087803b15801562000d9157600080fd5b505af115801562000da6573d6000803e3d6000fd5b505050506004805490506000808373ffffffffffffffffffffffffffffffffffffffff1673ffffffffffffffffffffffffffffffffffffffff168152602001908152602001600020819055507fac79b139c3a0deca65a4720eeaa2fa0375948035a7d6706026a955e46fbd0b128160048054905060405162000e2a92919062001b89565b60405180910390a160046060604051908101604052808373ffffffffffffffffffffffffffffffffffffffff1681526020016001151581526020016001151581525090806001815401808255809150509060018203906000526020600020016000909192909190915060008201518160000160006101000a81548173ffffffffffffffffffffffffffffffffffffffff021916908373ffffffffffffffffffffffffffffffffffffffff16021790555060208201518160000160146101000a81548160ff02191690831515021790555060408201518160000160156101000a81548160ff0219169083151502179055505050505050505050505050505050565b60006020528060005260406000206000915090505481565b6040516151c280620020f883390190565b600062000f61823562001f61565b905092915050565b600082601f830112151562000f7d57600080fd5b813562000f9462000f8e8262001d9a565b62001d6c565b9150818183526020840193506020810190508360005b8381101562000fde578135860162000fc3888262001056565b84526020840193506020830192505060018101905062000faa565b5050505092915050565b600062000ff6823562001f75565b905092915050565b60006200100c825162001f75565b905092915050565b600062001022823562001f81565b905092915050565b600062001038823562001fad565b905092915050565b60006200104e823562001fd9565b905092915050565b600082601f83011215156200106a57600080fd5b8135620010816200107b8262001dc3565b62001d6c565b915080825260208301602083018583830111156200109e57600080fd5b620010ab838284620020a1565b50505092915050565b600082601f8301121515620010c857600080fd5b8135620010df620010d98262001df0565b62001d6c565b91508082526020830160208301858383011115620010fc57600080fd5b62001109838284620020a1565b50505092915050565b600062001120823562001fe3565b905092915050565b600082601f83011215156200113c57600080fd5b8135620011536200114d8262001e1d565b62001d6c565b915080825260208301602083018583830111156200117057600080fd5b6200117d838284620020a1565b50505092915050565b600082601f83011215156200119a57600080fd5b8151620011b1620011ab8262001e1d565b62001d6c565b91508082526020830160208301858383011115620011ce57600080fd5b620011db838284620020b0565b50505092915050565b600060808284031215620011f757600080fd5b62001203608062001d6c565b90506000620012158482850162001014565b60008301525060206200122b848285016200102a565b6020830152506040620012418482850162001014565b604083015250606062001257848285016200102a565b60608301525092915050565b600062001271823562001ffd565b905092915050565b60006200128782356200200b565b905092915050565b60006200129d82516200200b565b905092915050565b600060208284031215620012b857600080fd5b6000620012c88482850162000f53565b91505092915050565b600060208284031215620012e457600080fd5b6000620012f48482850162000fe8565b91505092915050565b600080600080600060a086880312156200131657600080fd5b6000620013268882890162000fe8565b9550506020620013398882890162000f53565b94505060406200134c8882890162001040565b93505060606200135f8882890162001040565b9250506080620013728882890162001279565b9150509295509295909350565b6000806000606084860312156200139557600080fd5b6000620013a58682870162000ffe565b935050602084015167ffffffffffffffff811115620013c357600080fd5b620013d18682870162001186565b9250506040620013e4868287016200128f565b9150509250925092565b6000806000806000806000610140888a0312156200140b57600080fd5b60006200141b8a828b01620011e4565b97505060806200142e8a828b0162001279565b96505060a088013567ffffffffffffffff8111156200144c57600080fd5b6200145a8a828b0162000f69565b95505060c06200146d8a828b0162001263565b94505060e088013567ffffffffffffffff8111156200148b57600080fd5b620014998a828b01620010b4565b935050610100620014ad8a828b0162001112565b925050610120620014c18a828b0162000fe8565b91505092959891949750929550565b600060208284031215620014e357600080fd5b6000620014f38482850162001279565b91505092915050565b600080604083850312156200151057600080fd5b6000620015208582860162001279565b925050602083013567ffffffffffffffff8111156200153e57600080fd5b6200154c8582860162001128565b9150509250929050565b6000806000606084860312156200156c57600080fd5b60006200157c8682870162001279565b93505060206200158f8682870162001279565b9250506040620015a28682870162000f53565b9150509250925092565b600080600080600060a08688031215620015c557600080fd5b6000620015d58882890162001279565b9550506020620015e88882890162001279565b9450506040620015fb8882890162000f53565b93505060606200160e8882890162001279565b9250506080620016218882890162001279565b9150509295509295909350565b620016398162002015565b82525050565b6200164a8162001e90565b82525050565b60006200165d8262001e57565b80845260208401935083602082028501620016788562001e4a565b60005b84811015620016b75783830388526200169683835162001748565b9250620016a38262001e83565b91506020880197506001810190506200167b565b508196508694505050505092915050565b620016d38162001ea4565b82525050565b620016e48162001eb0565b82525050565b620016f58162001edc565b82525050565b620017068162001f08565b82525050565b6000620017198262001e6d565b8084526200172f816020860160208601620020b0565b6200173a81620020e6565b602085010191505092915050565b6000620017558262001e62565b8084526200176b816020860160208601620020b0565b6200177681620020e6565b602085010191505092915050565b6200178f8162002029565b82525050565b620017a08162002051565b82525050565b620017b18162002065565b82525050565b6000620017c48262001e78565b808452620017da816020860160208601620020b0565b620017e581620020e6565b602085010191505092915050565b6000602b82527f4f6e6c7920636f6e74726163742043617272696572732063616e2063616c6c2060208301527f74686973206d6574686f640000000000000000000000000000000000000000006040830152606082019050919050565b6000602782527f4f6e6c7920636f6e747261637420547269702063616e2063616c6c207468697360208301527f206d6574686f64000000000000000000000000000000000000000000000000006040830152606082019050919050565b6000600382527f6e657700000000000000000000000000000000000000000000000000000000006020830152604082019050919050565b6000600e82527f54726970206e6f742065786973740000000000000000000000000000000000006020830152604082019050919050565b608082016000820151620019336000850182620016d9565b506020820151620019486020850182620016ea565b5060408201516200195d6040850182620016d9565b506060820151620019726060850182620016ea565b50505050565b620019838162001f29565b82525050565b620019948162001f57565b82525050565b6000602082019050620019b160008301846200163f565b92915050565b6000602082019050620019ce60008301846200162e565b92915050565b6000606082019050620019eb60008301866200162e565b620019fa602083018562001989565b818103604083015262001a0e8184620017b7565b9050949350505050565b600060808201905062001a2f60008301876200162e565b62001a3e602083018662001989565b62001a4d604083018562001989565b62001a5c60608301846200163f565b95945050505050565b600060c08201905062001a7c60008301896200162e565b62001a8b602083018862001989565b62001a9a604083018762001989565b62001aa960608301866200163f565b62001ab8608083018562001989565b62001ac760a083018462001989565b979650505050505050565b600060608201905062001ae960008301866200163f565b62001af86020830185620016c8565b62001b076040830184620016c8565b949350505050565b600060808201905062001b2660008301876200163f565b62001b356020830186620016fb565b62001b446040830185620016fb565b62001b53606083018462001989565b95945050505050565b600060408201905062001b7360008301856200163f565b62001b826020830184620017a6565b9392505050565b600060608201905062001ba060008301856200163f565b62001baf602083018462001989565b818103604083015262001bc281620018ad565b90509392505050565b600060208201905062001be2600083018462001784565b92915050565b6000602082019050818103600083015262001c048184620017b7565b905092915050565b6000602082019050818103600083015262001c2781620017f3565b9050919050565b6000602082019050818103600083015262001c498162001850565b9050919050565b6000602082019050818103600083015262001c6b81620018e4565b9050919050565b600060208201905062001c89600083018462001989565b92915050565b600060408201905062001ca6600083018562001989565b62001cb560208301846200163f565b9392505050565b60006101808201905062001cd4600083018c62001989565b62001ce3602083018b62001989565b62001cf2604083018a6200191b565b62001d0160c083018962001989565b81810360e083015262001d15818862001650565b905062001d2761010083018762001978565b81810361012083015262001d3c81866200170c565b905062001d4e61014083018562001795565b62001d5e610160830184620016c8565b9a9950505050505050505050565b6000604051905081810181811067ffffffffffffffff8211171562001d9057600080fd5b8060405250919050565b600067ffffffffffffffff82111562001db257600080fd5b602082029050602081019050919050565b600067ffffffffffffffff82111562001ddb57600080fd5b601f19601f8301169050602081019050919050565b600067ffffffffffffffff82111562001e0857600080fd5b601f19601f8301169050602081019050919050565b600067ffffffffffffffff82111562001e3557600080fd5b601f19601f8301169050602081019050919050565b6000602082019050919050565b600081519050919050565b600081519050919050565b600081519050919050565b600081519050919050565b6000602082019050919050565b600062001e9d8262001f37565b9050919050565b60008115159050919050565b60007fffffffffffffffffffff0000000000000000000000000000000000000000000082169050919050565b60007fffffffffffffffffffffff00000000000000000000000000000000000000000082169050919050565b6000819050919050565b600060828210151562001f2157fe5b819050919050565b600061ffff82169050919050565b600073ffffffffffffffffffffffffffffffffffffffff82169050919050565b6000819050919050565b600062001f6e8262001f37565b9050919050565b60008115159050919050565b60007fffffffffffffffffffff0000000000000000000000000000000000000000000082169050919050565b60007fffffffffffffffffffffff00000000000000000000000000000000000000000082169050919050565b6000819050919050565b600060828210151562001ff557600080fd5b819050919050565b600061ffff82169050919050565b6000819050919050565b6000620020228262002079565b9050919050565b600062002036826200203d565b9050919050565b60006200204a8262001f37565b9050919050565b60006200205e8262001f12565b9050919050565b6000620020728262001f57565b9050919050565b600062002086826200208d565b9050919050565b60006200209a8262001f37565b9050919050565b82818337600083830152505050565b60005b83811015620020d0578082015181840152602081019050620020b3565b83811115620020e0576000848401525b50505050565b6000601f19601f830116905091905056fe60806040523480156200001157600080fd5b50604051620051c2380380620051c283398101806040526200003791908101906200080d565b336000806101000a81548173ffffffffffffffffffffffffffffffffffffffff021916908373ffffffffffffffffffffffffffffffffffffffff16021790555033600260006101000a81548173ffffffffffffffffffffffffffffffffffffffff021916908373ffffffffffffffffffffffffffffffffffffffff160217905550600260009054906101000a900473ffffffffffffffffffffffffffffffffffffffff1673ffffffffffffffffffffffffffffffffffffffff16639d76ea586040518163ffffffff167c010000000000000000000000000000000000000000000000000000000002815260040160206040518083038186803b1580156200013d57600080fd5b505afa15801562000152573d6000803e3d6000fd5b505050506040513d601f19601f82011682018060405250620001789190810190620007e1565b600160006101000a81548173ffffffffffffffffffffffffffffffffffffffff021916908373ffffffffffffffffffffffffffffffffffffffff160217905550886003819055508760048190555086600560008201518160000160006101000a81548169ffffffffffffffffffff021916908376010000000000000000000000000000000000000000000090040217905550602082015181600001600a6101000a8154816affffffffffffffffffffff021916908375010000000000000000000000000000000000000000009004021790555060408201518160000160156101000a81548169ffffffffffffffffffff02191690837601000000000000000000000000000000000000000000009004021790555060608201518160010160006101000a8154816affffffffffffffffffffff0219169083750100000000000000000000000000000000000000000090040217905550905050856007819055508460089080519060200190620002ef92919062000373565b5083600960006101000a81548161ffff021916908361ffff16021790555082600a908051906020019062000325929190620003da565b5081600b60006101000a81548160ff021916908360818111156200034557fe5b021790555080600b60016101000a81548160ff02191690831515021790555050505050505050505062000acc565b828054828255906000526020600020908101928215620003c7579160200282015b82811115620003c6578251829080519060200190620003b592919062000461565b509160200191906001019062000394565b5b509050620003d69190620004e8565b5090565b828054600181600116156101000203166002900490600052602060002090601f016020900481019282601f106200041d57805160ff19168380011785556200044e565b828001600101855582156200044e579182015b828111156200044d57825182559160200191906001019062000430565b5b5090506200045d919062000519565b5090565b828054600181600116156101000203166002900490600052602060002090601f016020900481019282601f10620004a457805160ff1916838001178555620004d5565b82800160010185558215620004d5579182015b82811115620004d4578251825591602001919060010190620004b7565b5b509050620004e4919062000519565b5090565b6200051691905b8082111562000512576000818162000508919062000541565b50600101620004ef565b5090565b90565b6200053e91905b808211156200053a57600081600090555060010162000520565b5090565b90565b50805460018160011615610100020316600290046000825580601f106200056957506200058a565b601f01602090049060005260206000209081019062000589919062000519565b5b50565b60006200059b8251620009ec565b905092915050565b600082601f8301121515620005b757600080fd5b8151620005ce620005c88262000949565b6200091b565b9150818183526020840193506020810190508360005b83811015620006185781518601620005fd888262000664565b845260208401935060208301925050600181019050620005e4565b5050505092915050565b600062000630825162000a00565b905092915050565b600062000646825162000a0c565b905092915050565b60006200065c825162000a38565b905092915050565b600082601f83011215156200067857600080fd5b81516200068f620006898262000972565b6200091b565b91508082526020830160208301858383011115620006ac57600080fd5b620006b983828462000a96565b50505092915050565b600082601f8301121515620006d657600080fd5b8151620006ed620006e7826200099f565b6200091b565b915080825260208301602083018583830111156200070a57600080fd5b6200071783828462000a96565b50505092915050565b60006200072e825162000a64565b905092915050565b6000608082840312156200074957600080fd5b6200075560806200091b565b90506000620007678482850162000638565b60008301525060206200077d848285016200064e565b6020830152506040620007938482850162000638565b6040830152506060620007a9848285016200064e565b60608301525092915050565b6000620007c3825162000a7e565b905092915050565b6000620007d9825162000a8c565b905092915050565b600060208284031215620007f457600080fd5b600062000804848285016200058d565b91505092915050565b60008060008060008060008060006101808a8c0312156200082d57600080fd5b60006200083d8c828d01620007cb565b9950506020620008508c828d01620007cb565b9850506040620008638c828d0162000736565b97505060c0620008768c828d01620007cb565b96505060e08a015167ffffffffffffffff8111156200089457600080fd5b620008a28c828d01620005a3565b955050610100620008b68c828d01620007b5565b9450506101208a015167ffffffffffffffff811115620008d557600080fd5b620008e38c828d01620006c2565b935050610140620008f78c828d0162000720565b9250506101606200090b8c828d0162000622565b9150509295985092959850929598565b6000604051905081810181811067ffffffffffffffff821117156200093f57600080fd5b8060405250919050565b600067ffffffffffffffff8211156200096157600080fd5b602082029050602081019050919050565b600067ffffffffffffffff8211156200098a57600080fd5b601f19601f8301169050602081019050919050565b600067ffffffffffffffff821115620009b757600080fd5b601f19601f8301169050602081019050919050565b600073ffffffffffffffffffffffffffffffffffffffff82169050919050565b6000620009f982620009cc565b9050919050565b60008115159050919050565b60007fffffffffffffffffffff0000000000000000000000000000000000000000000082169050919050565b60007fffffffffffffffffffffff00000000000000000000000000000000000000000082169050919050565b600060828210151562000a7657600080fd5b819050919050565b600061ffff82169050919050565b6000819050919050565b60005b8381101562000ab657808201518184015260208101905062000a99565b8381111562000ac6576000848401525b50505050565b6146e68062000adc6000396000f3fe6080604052600436106100d5576000357c010000000000000000000000000000000000000000000000000000000090048063102b9b26146100da57806314f2979f1461011857806318fd89031461015657806321a885591461017f578063328d8f72146101aa578063370158ea146101d357806344a482c8146102075780634ed02622146102305780638da5cb5b1461025c578063abc14e6114610287578063b1ab1f50146102b2578063c0ee0b8a146102db578063f1d5659e14610304578063f2fde38b1461032f578063fc6bd76a14610358575b600080fd5b3480156100e657600080fd5b5061010160048036036100fc9190810190613a29565b610381565b60405161010f9291906140e4565b60405180910390f35b34801561012457600080fd5b5061013f600480360361013a91908101906139d7565b61070c565b60405161014d9291906141d4565b60405180910390f35b34801561016257600080fd5b5061017d60048036036101789190810190613865565b6107a6565b005b34801561018b57600080fd5b50610194610d23565b6040516101a19190614204565b60405180910390f35b3480156101b657600080fd5b506101d160048036036101cc91908101906138b4565b610d2d565b005b3480156101df57600080fd5b506101e8611039565b6040516101fe9a99989796959493929190613fe5565b60405180910390f35b34801561021357600080fd5b5061022e6004803603610229919081019061392f565b61153a565b005b34801561023c57600080fd5b50610245611a64565b604051610253929190614092565b60405180910390f35b34801561026857600080fd5b50610271611c03565b60405161027e9190613f6a565b60405180910390f35b34801561029357600080fd5b5061029c611c28565b6040516102a99190613f34565b60405180910390f35b3480156102be57600080fd5b506102d960048036036102d49190810190613906565b611d91565b005b3480156102e757600080fd5b5061030260048036036102fd91908101906137fe565b611ffd565b005b34801561031057600080fd5b50610319612549565b6040516103269190614204565b60405180910390f35b34801561033b57600080fd5b50610356600480360361035191908101906137ac565b612553565b005b34801561036457600080fd5b5061037f600480360361037a9190810190613783565b61262d565b005b6000606083600160009054906101000a900473ffffffffffffffffffffffffffffffffffffffff1673ffffffffffffffffffffffffffffffffffffffff166370a08231336040518263ffffffff167c01000000000000000000000000000000000000000000000000000000000281526004016103fd9190613f4f565b60206040518083038186803b15801561041557600080fd5b505afa158015610429573d6000803e3d6000fd5b505050506040513d601f19601f8201168201806040525061044d9190810190613a00565b10156104bb576001606060405190810160405280602181526020017f596f7520646f206e6f74206861766520656e6f75676820464c5420746f6b656e81526020017f730000000000000000000000000000000000000000000000000000000000000081525091509150610705565b600b60019054906101000a900460ff1615156105125760016040805190810160405280601081526020017f547269702069732064697361626c65640000000000000000000000000000000081525091509150610705565b60008061051e85612f2e565b50915091508160075402861415156105735760016040805190810160405280600b81526020017f57726f6e67207072696365000000000000000000000000000000000000000000815250935093505050610705565b42811115156105bf5760016040805190810160405280601d81526020017f546865207472697020617420746869732074696d65206973206f766572000000815250935093505050610705565b6105c761326f565b600d60008381526020019081526020016000206040805190810160405290816000820160009054906101000a900461ffff1661ffff1661ffff1681526020016001820180548060200260200160405190810160405280929190818152602001828054801561065457602002820191906000526020600020905b815481526020019060010190808311610640575b5050505050815250509050828160000151600960009054906101000a900461ffff160361ffff1610156106c55760016040805190810160405280601281526020017f4e6f7420656e6f756768207469636b657473000000000000000000000000000081525094509450505050610705565b60006040805190810160405280600281526020017f6f6b000000000000000000000000000000000000000000000000000000000000815250945094505050505b9250929050565b60006060600d600084815260200190815260200160002060000160009054906101000a900461ffff16600d60008581526020019081526020016000206001018080548060200260200160405190810160405280929190818152602001828054801561079657602002820191906000526020600020905b815481526020019060010190808311610782575b5050505050905091509150915091565b600260009054906101000a900473ffffffffffffffffffffffffffffffffffffffff1673ffffffffffffffffffffffffffffffffffffffff16630323d5ce6040518163ffffffff167c010000000000000000000000000000000000000000000000000000000002815260040160206040518083038186803b15801561082a57600080fd5b505afa15801561083e573d6000803e3d6000fd5b505050506040513d601f19601f8201168201806040525061086291908101906138dd565b73ffffffffffffffffffffffffffffffffffffffff1663ae4d72e06003546040518263ffffffff167c01000000000000000000000000000000000000000000000000000000000281526004016108b89190614204565b60206040518083038186803b1580156108d057600080fd5b505afa1580156108e4573d6000803e3d6000fd5b505050506040513d601f19601f8201168201806040525061090891908101906137d5565b73ffffffffffffffffffffffffffffffffffffffff163373ffffffffffffffffffffffffffffffffffffffff1614151561094157600080fd5b600080905061094e61326f565b600d60008581526020019081526020016000206040805190810160405290816000820160009054906101000a900461ffff1661ffff1661ffff168152602001600182018054806020026020016040519081016040528092919081815260200182805480156109db57602002820191906000526020600020905b8154815260200190600101908083116109c7575b505050505081525050905060008090505b808260200151511115610b69578573ffffffffffffffffffffffffffffffffffffffff16600c836020015183815181101515610a2457fe5b90602001906020020151815481101515610a3a57fe5b906000526020600020906004020160000160009054906101000a900473ffffffffffffffffffffffffffffffffffffffff1673ffffffffffffffffffffffffffffffffffffffff16148015610ad55750600c826020015182815181101515610a9e57fe5b90602001906020020151815481101515610ab457fe5b906000526020600020906004020160030160019054906101000a900460ff16155b8015610ae15750838311155b15610b5c5782806001019350506001600c836020015183815181101515610b0457fe5b90602001906020020151815481101515610b1a57fe5b906000526020600020906004020160030160016101000a81548160ff0219169083151502179055508160000180518091906001900361ffff1661ffff16815250505b80806001019150506109ec565b506000821115610cd857600260009054906101000a900473ffffffffffffffffffffffffffffffffffffffff1673ffffffffffffffffffffffffffffffffffffffff1663ca52055e60045484886040518463ffffffff167c0100000000000000000000000000000000000000000000000000000000028152600401610bf0939291906142a9565b600060405180830381600087803b158015610c0a57600080fd5b505af1158015610c1e573d6000803e3d6000fd5b50505050600160009054906101000a900473ffffffffffffffffffffffffffffffffffffffff1673ffffffffffffffffffffffffffffffffffffffff1663a9059cbb8684600754026040518363ffffffff167c0100000000000000000000000000000000000000000000000000000000028152600401610c9f929190613f85565b600060405180830381600087803b158015610cb957600080fd5b505af1158015610ccd573d6000803e3d6000fd5b505050505050610d1e565b60001515610d1b576040517f08c379a0000000000000000000000000000000000000000000000000000000008152600401610d1290614174565b60405180910390fd5b50505b505050565b6000600354905090565b600260009054906101000a900473ffffffffffffffffffffffffffffffffffffffff1673ffffffffffffffffffffffffffffffffffffffff16630323d5ce6040518163ffffffff167c010000000000000000000000000000000000000000000000000000000002815260040160206040518083038186803b158015610db157600080fd5b505afa158015610dc5573d6000803e3d6000fd5b505050506040513d601f19601f82011682018060405250610de991908101906138dd565b73ffffffffffffffffffffffffffffffffffffffff1663ae4d72e06003546040518263ffffffff167c0100000000000000000000000000000000000000000000000000000000028152600401610e3f9190614204565b60206040518083038186803b158015610e5757600080fd5b505afa158015610e6b573d6000803e3d6000fd5b505050506040513d601f19601f82011682018060405250610e8f91908101906137d5565b73ffffffffffffffffffffffffffffffffffffffff163373ffffffffffffffffffffffffffffffffffffffff16141515610ec857600080fd5b80600b60016101000a81548160ff021916908315150217905550600260009054906101000a900473ffffffffffffffffffffffffffffffffffffffff1673ffffffffffffffffffffffffffffffffffffffff1663328d8f72826040518263ffffffff167c0100000000000000000000000000000000000000000000000000000000028152600401610f5991906140c9565b600060405180830381600087803b158015610f7357600080fd5b505af1158015610f87573d6000803e3d6000fd5b50505050600260009054906101000a900473ffffffffffffffffffffffffffffffffffffffff1673ffffffffffffffffffffffffffffffffffffffff16638e91e6116004546040518263ffffffff167c0100000000000000000000000000000000000000000000000000000000028152600401611004919061421f565b600060405180830381600087803b15801561101e57600080fd5b505af1158015611032573d6000803e3d6000fd5b5050505050565b60008061104461328d565b60006060600060606000806000600260009054906101000a900473ffffffffffffffffffffffffffffffffffffffff1673ffffffffffffffffffffffffffffffffffffffff16630323d5ce6040518163ffffffff167c010000000000000000000000000000000000000000000000000000000002815260040160206040518083038186803b1580156110d557600080fd5b505afa1580156110e9573d6000803e3d6000fd5b505050506040513d601f19601f8201168201806040525061110d91908101906138dd565b73ffffffffffffffffffffffffffffffffffffffff1663ae4d72e06003546040518263ffffffff167c01000000000000000000000000000000000000000000000000000000000281526004016111639190614204565b60206040518083038186803b15801561117b57600080fd5b505afa15801561118f573d6000803e3d6000fd5b505050506040513d601f19601f820116820180604052506111b391908101906137d5565b60035460056007546008600960009054906101000a900461ffff16600a600b60019054906101000a900460ff16600160009054906101000a900473ffffffffffffffffffffffffffffffffffffffff16600b60009054906101000a900460ff1689995087608060405190810160405290816000820160009054906101000a90047601000000000000000000000000000000000000000000000275ffffffffffffffffffffffffffffffffffffffffffff191675ffffffffffffffffffffffffffffffffffffffffffff1916815260200160008201600a9054906101000a900475010000000000000000000000000000000000000000000274ffffffffffffffffffffffffffffffffffffffffff191674ffffffffffffffffffffffffffffffffffffffffff191681526020016000820160159054906101000a90047601000000000000000000000000000000000000000000000275ffffffffffffffffffffffffffffffffffffffffffff191675ffffffffffffffffffffffffffffffffffffffffffff191681526020016001820160009054906101000a900475010000000000000000000000000000000000000000000274ffffffffffffffffffffffffffffffffffffffffff191674ffffffffffffffffffffffffffffffffffffffffff191681525050975085805480602002602001604051908101604052809291908181526020016000905b82821015611478578382906000526020600020018054600181600116156101000203166002900480601f0160208091040260200160405190810160405280929190818152602001828054600181600116156101000203166002900480156114645780601f1061143957610100808354040283529160200191611464565b820191906000526020600020905b81548152906001019060200180831161144757829003601f168201915b5050505050815260200190600101906113bc565b505050509550838054600181600116156101000203166002900480601f0160208091040260200160405190810160405280929190818152602001828054600181600116156101000203166002900480156115135780601f106114e857610100808354040283529160200191611513565b820191906000526020600020905b8154815290600101906020018083116114f657829003601f168201915b50505050509350995099509950995099509950995099509950995090919293949596979899565b600260009054906101000a900473ffffffffffffffffffffffffffffffffffffffff1673ffffffffffffffffffffffffffffffffffffffff16630323d5ce6040518163ffffffff167c010000000000000000000000000000000000000000000000000000000002815260040160206040518083038186803b1580156115be57600080fd5b505afa1580156115d2573d6000803e3d6000fd5b505050506040513d601f19601f820116820180604052506115f691908101906138dd565b73ffffffffffffffffffffffffffffffffffffffff1663ae4d72e06003546040518263ffffffff167c010000000000000000000000000000000000000000000000000000000002815260040161164c9190614204565b60206040518083038186803b15801561166457600080fd5b505afa158015611678573d6000803e3d6000fd5b505050506040513d601f19601f8201168201806040525061169c91908101906137d5565b73ffffffffffffffffffffffffffffffffffffffff163373ffffffffffffffffffffffffffffffffffffffff161415156116d557600080fd5b84600560008201518160000160006101000a81548169ffffffffffffffffffff021916908376010000000000000000000000000000000000000000000090040217905550602082015181600001600a6101000a8154816affffffffffffffffffffff021916908375010000000000000000000000000000000000000000009004021790555060408201518160000160156101000a81548169ffffffffffffffffffff02191690837601000000000000000000000000000000000000000000009004021790555060608201518160010160006101000a8154816affffffffffffffffffffff02191690837501000000000000000000000000000000000000000000900402179055509050506000841415156117f157836007819055505b60007f01000000000000000000000000000000000000000000000000000000000000000283600081518110151561182457fe5b90602001906020020151600081518110151561183c57fe5b9060200101517f010000000000000000000000000000000000000000000000000000000000000090047f0100000000000000000000000000000000000000000000000000000000000000027effffffffffffffffffffffffffffffffffffffffffffffffffffffffffffff19161415156118c85782600890805190602001906118c6929190613318565b505b60008261ffff1611156118f35781600960006101000a81548161ffff021916908361ffff1602179055505b60007f01000000000000000000000000000000000000000000000000000000000000000281600081518110151561192657fe5b9060200101517f010000000000000000000000000000000000000000000000000000000000000090047f0100000000000000000000000000000000000000000000000000000000000000027effffffffffffffffffffffffffffffffffffffffffffffffffffffffffffff19161415156119b25780600a90805190602001906119b0929190613378565b505b600260009054906101000a900473ffffffffffffffffffffffffffffffffffffffff1673ffffffffffffffffffffffffffffffffffffffff16638e91e6116004546040518263ffffffff167c0100000000000000000000000000000000000000000000000000000000028152600401611a2b919061424d565b600060405180830381600087803b158015611a4557600080fd5b505af1158015611a59573d6000803e3d6000fd5b505050505050505050565b6060806060600c80549050604051908082528060200260200182016040528015611a9d5781602001602082028038833980820191505090505b5090506060600c80549050604051908082528060200260200182016040528015611ad65781602001602082028038833980820191505090505b50905060008090505b80600c805490501115611bf657600c81815481101515611afb57fe5b906000526020600020906004020160030160019054906101000a900460ff161515611be957600c81815481101515611b2f57fe5b906000526020600020906004020160000160009054906101000a900473ffffffffffffffffffffffffffffffffffffffff168382815181101515611b6f57fe5b9060200190602002019073ffffffffffffffffffffffffffffffffffffffff16908173ffffffffffffffffffffffffffffffffffffffff1681525050600c81815481101515611bba57fe5b9060005260206000209060040201600201548282815181101515611bda57fe5b90602001906020020181815250505b8080600101915050611adf565b5081819350935050509091565b6000809054906101000a900473ffffffffffffffffffffffffffffffffffffffff1681565b6000600260009054906101000a900473ffffffffffffffffffffffffffffffffffffffff1673ffffffffffffffffffffffffffffffffffffffff16630323d5ce6040518163ffffffff167c010000000000000000000000000000000000000000000000000000000002815260040160206040518083038186803b158015611cae57600080fd5b505afa158015611cc2573d6000803e3d6000fd5b505050506040513d601f19601f82011682018060405250611ce691908101906138dd565b73ffffffffffffffffffffffffffffffffffffffff1663ae4d72e06003546040518263ffffffff167c0100000000000000000000000000000000000000000000000000000000028152600401611d3c9190614204565b60206040518083038186803b158015611d5457600080fd5b505afa158015611d68573d6000803e3d6000fd5b505050506040513d601f19601f82011682018060405250611d8c91908101906137d5565b905090565b600260009054906101000a900473ffffffffffffffffffffffffffffffffffffffff1673ffffffffffffffffffffffffffffffffffffffff16630323d5ce6040518163ffffffff167c010000000000000000000000000000000000000000000000000000000002815260040160206040518083038186803b158015611e1557600080fd5b505afa158015611e29573d6000803e3d6000fd5b505050506040513d601f19601f82011682018060405250611e4d91908101906138dd565b73ffffffffffffffffffffffffffffffffffffffff1663ae4d72e06003546040518263ffffffff167c0100000000000000000000000000000000000000000000000000000000028152600401611ea39190614204565b60206040518083038186803b158015611ebb57600080fd5b505afa158015611ecf573d6000803e3d6000fd5b505050506040513d601f19601f82011682018060405250611ef391908101906137d5565b73ffffffffffffffffffffffffffffffffffffffff163373ffffffffffffffffffffffffffffffffffffffff16141515611f2c57600080fd5b80600b60006101000a81548160ff02191690836081811115611f4a57fe5b0217905550600260009054906101000a900473ffffffffffffffffffffffffffffffffffffffff1673ffffffffffffffffffffffffffffffffffffffff16638e91e6116004546040518263ffffffff167c0100000000000000000000000000000000000000000000000000000000028152600401611fc8919061427b565b600060405180830381600087803b158015611fe257600080fd5b505af1158015611ff6573d6000803e3d6000fd5b5050505050565b600160009054906101000a900473ffffffffffffffffffffffffffffffffffffffff1673ffffffffffffffffffffffffffffffffffffffff163373ffffffffffffffffffffffffffffffffffffffff1614151561208f576040517f08c379a000000000000000000000000000000000000000000000000000000000815260040161208690614134565b60405180910390fd5b600b60019054906101000a900460ff1615156120e0576040517f08c379a00000000000000000000000000000000000000000000000000000000081526004016120d790614194565b60405180910390fd5b60008060006120ee84612f2e565b92509250925082600754028514151561213c576040517f08c379a0000000000000000000000000000000000000000000000000000000008152600401612133906141b4565b60405180910390fd5b4282111515612180576040517f08c379a000000000000000000000000000000000000000000000000000000000815260040161217790614114565b60405180910390fd5b61218861326f565b600d60008481526020019081526020016000206040805190810160405290816000820160009054906101000a900461ffff1661ffff1661ffff1681526020016001820180548060200260200160405190810160405280929190818152602001828054801561221557602002820191906000526020600020905b815481526020019060010190808311612201575b5050505050815250509050838160000151600960009054906101000a900461ffff160361ffff161015151561227f576040517f08c379a000000000000000000000000000000000000000000000000000000000815260040161227690614154565b60405180910390fd5b600260009054906101000a900473ffffffffffffffffffffffffffffffffffffffff1673ffffffffffffffffffffffffffffffffffffffff16632dcac642600454868a600754886040518663ffffffff167c01000000000000000000000000000000000000000000000000000000000281526004016123029594939291906142e0565b600060405180830381600087803b15801561231c57600080fd5b505af1158015612330573d6000803e3d6000fd5b5050505060008090505b8481101561253f57600d6000858152602001908152602001600020600001600081819054906101000a900461ffff168092919060010191906101000a81548161ffff021916908361ffff16021790555050600d6000858152602001908152602001600020600101600c805490509080600181540180825580915050906001820390600052602060002001600090919290919091505550600c60a0604051908101604052808a73ffffffffffffffffffffffffffffffffffffffff1681526020018573ffffffffffffffffffffffffffffffffffffffff168152602001868152602001600015158152602001600015158152509080600181540180825580915050906001820390600052602060002090600402016000909192909190915060008201518160000160006101000a81548173ffffffffffffffffffffffffffffffffffffffff021916908373ffffffffffffffffffffffffffffffffffffffff16021790555060208201518160010160006101000a81548173ffffffffffffffffffffffffffffffffffffffff021916908373ffffffffffffffffffffffffffffffffffffffff1602179055506040820151816002015560608201518160030160006101000a81548160ff02191690831515021790555060808201518160030160016101000a81548160ff021916908315150217905550505050808060010191505061233a565b5050505050505050565b6000600454905090565b6000809054906101000a900473ffffffffffffffffffffffffffffffffffffffff1673ffffffffffffffffffffffffffffffffffffffff163373ffffffffffffffffffffffffffffffffffffffff161415156125ae57600080fd5b600073ffffffffffffffffffffffffffffffffffffffff168173ffffffffffffffffffffffffffffffffffffffff16141515156125ea57600080fd5b806000806101000a81548173ffffffffffffffffffffffffffffffffffffffff021916908373ffffffffffffffffffffffffffffffffffffffff16021790555050565b600260009054906101000a900473ffffffffffffffffffffffffffffffffffffffff1673ffffffffffffffffffffffffffffffffffffffff16630323d5ce6040518163ffffffff167c010000000000000000000000000000000000000000000000000000000002815260040160206040518083038186803b1580156126b157600080fd5b505afa1580156126c5573d6000803e3d6000fd5b505050506040513d601f19601f820116820180604052506126e991908101906138dd565b73ffffffffffffffffffffffffffffffffffffffff1663ae4d72e06003546040518263ffffffff167c010000000000000000000000000000000000000000000000000000000002815260040161273f9190614204565b60206040518083038186803b15801561275757600080fd5b505afa15801561276b573d6000803e3d6000fd5b505050506040513d601f19601f8201168201806040525061278f91908101906137d5565b73ffffffffffffffffffffffffffffffffffffffff163373ffffffffffffffffffffffffffffffffffffffff161415156127c857600080fd5b60608060008090506000809050600080905060008090505b80600c805490501115612ae357600c818154811015156127fc57fe5b906000526020600020906004020160030160009054906101000a900460ff161580156128535750600c8181548110151561283257fe5b906000526020600020906004020160030160019054906101000a900460ff16155b801561287e575042600c8281548110151561286a57fe5b906000526020600020906004020160020154105b15612ad657600073ffffffffffffffffffffffffffffffffffffffff16600c828154811015156128aa57fe5b906000526020600020906004020160010160009054906101000a900473ffffffffffffffffffffffffffffffffffffffff1673ffffffffffffffffffffffffffffffffffffffff16141515612a6f57600061294587600c8481548110151561290e57fe5b906000526020600020906004020160010160009054906101000a900473ffffffffffffffffffffffffffffffffffffffff166131ee565b90506000811415612a1957600c8281548110151561295f57fe5b906000526020600020906004020160010160009054906101000a900473ffffffffffffffffffffffffffffffffffffffff16878681518110151561299f57fe5b9060200190602002019073ffffffffffffffffffffffffffffffffffffffff16908173ffffffffffffffffffffffffffffffffffffffff1681525050600a6007548115156129e957fe5b0486868151811015156129f857fe5b90602001906020020181815101915081815250508480600101955050612a4e565b600a600754811515612a2757fe5b048660018303815181101515612a3957fe5b90602001906020020181815101915081815250505b6103e8606560075402811515612a6057fe5b04600754038401935050612a88565b6103e8600754811515612a7e57fe5b0460075403830192505b6103e8600754811515612a9757fe5b04820191506001600c82815481101515612aad57fe5b906000526020600020906004020160030160006101000a81548160ff0219169083151502179055505b80806001019150506127e0565b50600073ffffffffffffffffffffffffffffffffffffffff168673ffffffffffffffffffffffffffffffffffffffff161415612c7e57600260009054906101000a900473ffffffffffffffffffffffffffffffffffffffff1673ffffffffffffffffffffffffffffffffffffffff16630323d5ce6040518163ffffffff167c010000000000000000000000000000000000000000000000000000000002815260040160206040518083038186803b158015612b9d57600080fd5b505afa158015612bb1573d6000803e3d6000fd5b505050506040513d601f19601f82011682018060405250612bd591908101906138dd565b73ffffffffffffffffffffffffffffffffffffffff1663ae4d72e06003546040518263ffffffff167c0100000000000000000000000000000000000000000000000000000000028152600401612c2b9190614204565b60206040518083038186803b158015612c4357600080fd5b505afa158015612c57573d6000803e3d6000fd5b505050506040513d601f19601f82011682018060405250612c7b91908101906137d5565b95505b7f654be7454f73d17698cc6328c334c6b369ce05eeb009e2fc3189178ed31cf8b1868330604051612cb193929190613fae565b60405180910390a1600160009054906101000a900473ffffffffffffffffffffffffffffffffffffffff1673ffffffffffffffffffffffffffffffffffffffff1663a9059cbb87846040518363ffffffff167c0100000000000000000000000000000000000000000000000000000000028152600401612d32929190613f85565b600060405180830381600087803b158015612d4c57600080fd5b505af1158015612d60573d6000803e3d6000fd5b50505050600160009054906101000a900473ffffffffffffffffffffffffffffffffffffffff1673ffffffffffffffffffffffffffffffffffffffff1663a9059cbb600260009054906101000a900473ffffffffffffffffffffffffffffffffffffffff16836040518363ffffffff167c0100000000000000000000000000000000000000000000000000000000028152600401612dff929190613f85565b600060405180830381600087803b158015612e1957600080fd5b505af1158015612e2d573d6000803e3d6000fd5b5050505060008090505b83811015612f2557600160009054906101000a900473ffffffffffffffffffffffffffffffffffffffff1673ffffffffffffffffffffffffffffffffffffffff1663a9059cbb8783815181101515612e8b57fe5b906020019060200201518784815181101515612ea357fe5b906020019060200201516040518363ffffffff167c0100000000000000000000000000000000000000000000000000000000028152600401612ee6929190613f85565b600060405180830381600087803b158015612f0057600080fd5b505af1158015612f14573d6000803e3d6000fd5b505050508080600101915050612e37565b50505050505050565b6000806000806000809050601486511115612f4f5760148601519150601490505b60008060007fffffffffffffffffffffffffffffffffffffffffffffffffffffffffffffffff905060008490505b600285018110156131275760007f0100000000000000000000000000000000000000000000000000000000000000028a82815181101515612fba57fe5b9060200101517f010000000000000000000000000000000000000000000000000000000000000090047f0100000000000000000000000000000000000000000000000000000000000000027effffffffffffffffffffffffffffffffffffffffffffffffffffffffffffff19161415801561305457507fffffffffffffffffffffffffffffffffffffffffffffffffffffffffffffffff82145b1561305d578091505b7fffffffffffffffffffffffffffffffffffffffffffffffffffffffffffffffff8214151561311a5784600182010360020360080260020a8a828151811015156130a357fe5b9060200101517f010000000000000000000000000000000000000000000000000000000000000090047f0100000000000000000000000000000000000000000000000000000000000000027f0100000000000000000000000000000000000000000000000000000000000000900460ff1602840193505b8080600101915050612f7d565b5060006002850190505b89518110156131d857600181018a510360080260020a8a8281518110151561315557fe5b9060200101517f010000000000000000000000000000000000000000000000000000000000000090047f0100000000000000000000000000000000000000000000000000000000000000027f0100000000000000000000000000000000000000000000000000000000000000900460ff1602830192508080600101915050613131565b5082828697509750975050505050509193909250565b600080600090505b8351811015613263578273ffffffffffffffffffffffffffffffffffffffff16848281518110151561322457fe5b9060200190602002015173ffffffffffffffffffffffffffffffffffffffff1614156132565760018101915050613269565b80806001019150506131f6565b50600090505b92915050565b6040805190810160405280600061ffff168152602001606081525090565b608060405190810160405280600075ffffffffffffffffffffffffffffffffffffffffffff19168152602001600074ffffffffffffffffffffffffffffffffffffffffff19168152602001600075ffffffffffffffffffffffffffffffffffffffffffff19168152602001600074ffffffffffffffffffffffffffffffffffffffffff191681525090565b828054828255906000526020600020908101928215613367579160200282015b828111156133665782518290805190602001906133569291906133f8565b5091602001919060010190613338565b5b5090506133749190613478565b5090565b828054600181600116156101000203166002900490600052602060002090601f016020900481019282601f106133b957805160ff19168380011785556133e7565b828001600101855582156133e7579182015b828111156133e65782518255916020019190600101906133cb565b5b5090506133f491906134a4565b5090565b828054600181600116156101000203166002900490600052602060002090601f016020900481019282601f1061343957805160ff1916838001178555613467565b82800160010185558215613467579182015b8281111561346657825182559160200191906001019061344b565b5b50905061347491906134a4565b5090565b6134a191905b8082111561349d576000818161349491906134c9565b5060010161347e565b5090565b90565b6134c691905b808211156134c25760008160009055506001016134aa565b5090565b90565b50805460018160011615610100020316600290046000825580601f106134ef575061350e565b601f01602090049060005260206000209081019061350d91906134a4565b5b50565b600061351d8235614546565b905092915050565b60006135318235614558565b905092915050565b60006135458251614558565b905092915050565b600082601f830112151561356057600080fd5b813561357361356e82614360565b614333565b9150818183526020840193506020810190508360005b838110156135b9578135860161359f88826135ff565b845260208401935060208301925050600181019050613589565b5050505092915050565b60006135cf823561456a565b905092915050565b60006135e38235614576565b905092915050565b60006135f782356145a2565b905092915050565b600082601f830112151561361257600080fd5b813561362561362082614388565b614333565b9150808252602083016020830185838301111561364157600080fd5b61364c838284614659565b50505092915050565b600082601f830112151561366857600080fd5b813561367b613676826143b4565b614333565b9150808252602083016020830185838301111561369757600080fd5b6136a2838284614659565b50505092915050565b60006136b782516145ce565b905092915050565b60006136cb82356145e0565b905092915050565b6000608082840312156136e557600080fd5b6136ef6080614333565b905060006136ff848285016135d7565b6000830152506020613713848285016135eb565b6020830152506040613727848285016135d7565b604083015250606061373b848285016135eb565b60608301525092915050565b600061375382356145f9565b905092915050565b60006137678235614607565b905092915050565b600061377b8251614607565b905092915050565b60006020828403121561379557600080fd5b60006137a384828501613511565b91505092915050565b6000602082840312156137be57600080fd5b60006137cc84828501613525565b91505092915050565b6000602082840312156137e757600080fd5b60006137f584828501613539565b91505092915050565b60008060006060848603121561381357600080fd5b600061382186828701613511565b93505060206138328682870161375b565b925050604084013567ffffffffffffffff81111561384f57600080fd5b61385b86828701613655565b9150509250925092565b60008060006060848603121561387a57600080fd5b600061388886828701613511565b93505060206138998682870161375b565b92505060406138aa8682870161375b565b9150509250925092565b6000602082840312156138c657600080fd5b60006138d4848285016135c3565b91505092915050565b6000602082840312156138ef57600080fd5b60006138fd848285016136ab565b91505092915050565b60006020828403121561391857600080fd5b6000613926848285016136bf565b91505092915050565b6000806000806000610100868803121561394857600080fd5b6000613956888289016136d3565b95505060806139678882890161375b565b94505060a086013567ffffffffffffffff81111561398457600080fd5b6139908882890161354d565b93505060c06139a188828901613747565b92505060e086013567ffffffffffffffff8111156139be57600080fd5b6139ca88828901613655565b9150509295509295909350565b6000602082840312156139e957600080fd5b60006139f78482850161375b565b91505092915050565b600060208284031215613a1257600080fd5b6000613a208482850161376f565b91505092915050565b60008060408385031215613a3c57600080fd5b6000613a4a8582860161375b565b925050602083013567ffffffffffffffff811115613a6757600080fd5b613a7385828601613655565b9150509250929050565b613a8681614611565b82525050565b613a9581614482565b82525050565b613aa481614470565b82525050565b6000613ab582614407565b808452602084019350613ac7836143e0565b60005b82811015613af957613add868351613a9b565b613ae682614449565b9150602086019550600181019050613aca565b50849250505092915050565b6000613b1082614412565b80845260208401935083602082028501613b29856143ed565b60005b84811015613b62578383038852613b44838351613c31565b9250613b4f82614456565b9150602088019750600181019050613b2c565b508196508694505050505092915050565b6000613b7e8261441d565b808452602084019350613b90836143fa565b60005b82811015613bc257613ba6868351613f25565b613baf82614463565b9150602086019550600181019050613b93565b50849250505092915050565b613bd781614494565b82525050565b613be6816144a0565b82525050565b613bf5816144cc565b82525050565b6000613c0682614433565b808452613c1a816020860160208601614668565b613c238161469b565b602085010191505092915050565b6000613c3c82614428565b808452613c50816020860160208601614668565b613c598161469b565b602085010191505092915050565b613c7081614623565b82525050565b6000613c818261443e565b808452613c95816020860160208601614668565b613c9e8161469b565b602085010191505092915050565b6000601d82527f546865207472697020617420746869732074696d65206973206f7665720000006020830152604082019050919050565b6000600a82527f736574456e61626c6564000000000000000000000000000000000000000000006020830152604082019050919050565b6000600b82527f73657441727269627574650000000000000000000000000000000000000000006020830152604082019050919050565b6000602d82527f546869732066756e63696f6e206d7573742062652063616c6c65642066726f6d60208301527f20466c6f74656120546f6b656e000000000000000000000000000000000000006040830152606082019050919050565b6000601282527f4e6f7420656e6f756768207469636b65747300000000000000000000000000006020830152604082019050919050565b6000601082527f5469636b6574206e6f7420666f756e64000000000000000000000000000000006020830152604082019050919050565b6000600a82527f73657456656869636c65000000000000000000000000000000000000000000006020830152604082019050919050565b6000601082527f547269702069732064697361626c6564000000000000000000000000000000006020830152604082019050919050565b6000600b82527f57726f6e672070726963650000000000000000000000000000000000000000006020830152604082019050919050565b608082016000820151613ed76000850182613bdd565b506020820151613eea6020850182613bec565b506040820151613efd6040850182613bdd565b506060820151613f106060850182613bec565b50505050565b613f1f8161450e565b82525050565b613f2e8161453c565b82525050565b6000602082019050613f496000830184613a9b565b92915050565b6000602082019050613f646000830184613a7d565b92915050565b6000602082019050613f7f6000830184613a8c565b92915050565b6000604082019050613f9a6000830185613a9b565b613fa76020830184613f25565b9392505050565b6000606082019050613fc36000830186613a9b565b613fd06020830185613f25565b613fdd6040830184613a9b565b949350505050565b60006101a082019050613ffb600083018d613a9b565b614008602083018c613f25565b614015604083018b613ec1565b61402260c083018a613f25565b81810360e08301526140348189613b05565b9050614044610100830188613f16565b8181036101208301526140578187613bfb565b9050614067610140830186613bce565b614075610160830185613a9b565b614083610180830184613c67565b9b9a5050505050505050505050565b600060408201905081810360008301526140ac8185613aaa565b905081810360208301526140c08184613b73565b90509392505050565b60006020820190506140de6000830184613bce565b92915050565b60006040820190506140f96000830185613bce565b818103602083015261410b8184613c76565b90509392505050565b6000602082019050818103600083015261412d81613cac565b9050919050565b6000602082019050818103600083015261414d81613d51565b9050919050565b6000602082019050818103600083015261416d81613dae565b9050919050565b6000602082019050818103600083015261418d81613de5565b9050919050565b600060208201905081810360008301526141ad81613e53565b9050919050565b600060208201905081810360008301526141cd81613e8a565b9050919050565b60006040820190506141e96000830185613f16565b81810360208301526141fb8184613b73565b90509392505050565b60006020820190506142196000830184613f25565b92915050565b60006040820190506142346000830184613f25565b818103602083015261424581613ce3565b905092915050565b60006040820190506142626000830184613f25565b818103602083015261427381613d1a565b905092915050565b60006040820190506142906000830184613f25565b81810360208301526142a181613e1c565b905092915050565b60006060820190506142be6000830186613f25565b6142cb6020830185613f25565b6142d86040830184613a9b565b949350505050565b600060a0820190506142f56000830188613f25565b6143026020830187613f25565b61430f6040830186613a9b565b61431c6060830185613f25565b6143296080830184613f25565b9695505050505050565b6000604051905081810181811067ffffffffffffffff8211171561435657600080fd5b8060405250919050565b600067ffffffffffffffff82111561437757600080fd5b602082029050602081019050919050565b600067ffffffffffffffff82111561439f57600080fd5b601f19601f8301169050602081019050919050565b600067ffffffffffffffff8211156143cb57600080fd5b601f19601f8301169050602081019050919050565b6000602082019050919050565b6000602082019050919050565b6000602082019050919050565b600081519050919050565b600081519050919050565b600081519050919050565b600081519050919050565b600081519050919050565b600081519050919050565b6000602082019050919050565b6000602082019050919050565b6000602082019050919050565b600061447b8261451c565b9050919050565b600061448d8261451c565b9050919050565b60008115159050919050565b60007fffffffffffffffffffff0000000000000000000000000000000000000000000082169050919050565b60007fffffffffffffffffffffff00000000000000000000000000000000000000000082169050919050565b600060828210151561450657fe5b819050919050565b600061ffff82169050919050565b600073ffffffffffffffffffffffffffffffffffffffff82169050919050565b6000819050919050565b60006145518261451c565b9050919050565b60006145638261451c565b9050919050565b60008115159050919050565b60007fffffffffffffffffffff0000000000000000000000000000000000000000000082169050919050565b60007fffffffffffffffffffffff00000000000000000000000000000000000000000082169050919050565b60006145d982614470565b9050919050565b60006082821015156145f157600080fd5b819050919050565b600061ffff82169050919050565b6000819050919050565b600061461c82614635565b9050919050565b600061462e826144f8565b9050919050565b600061464082614647565b9050919050565b60006146528261451c565b9050919050565b82818337600083830152505050565b60005b8381101561468657808201518184015260208101905061466b565b83811115614695576000848401525b50505050565b6000601f19601f830116905091905056fea265627a7a72305820feffd709c796fc963dc6c5cb30b5a9d4069938fdec27182c1a2a1947e09bf8e66c6578706572696d656e74616cf50037a265627a7a72305820db5945401e44623ca7acc02016bcb8c5b01a9324da92c789a89dcb53d9c051526c6578706572696d656e74616cf50037",
  "source": "pragma solidity ^0.5.1;\npragma experimental ABIEncoderV2;\n\nimport \"./Trip.sol\";\nimport \"./TransportH.sol\";\nimport \"./CarriersInterface.sol\";\nimport \"./VotingCarrier.sol\";\nimport \"./FloteaToken.sol\";\n\ncontract Transport is TransportH{\n    CarriersInterface carriers;\n\n    constructor(address _tokenAddress, address _votingCarrierAddress, address _carriersAddress, address _floteaIcoAddress) public {\n        tokenAddress = _tokenAddress;\n        floteaIcoAddress = _floteaIcoAddress;\n        \n        VotingCarrier votingCarrier = VotingCarrier(_votingCarrierAddress);\n        carriers = CarriersInterface(_carriersAddress);\n        carriers.init();\n        votingCarrier.init(address(carriers));\n    }\n\n    function approve() public {\n        FloteaToken(tokenAddress).approve(floteaIcoAddress, 10**11); // Approve to transfer tokens from Transport\n    }\n    \n\n    function tripsLength() public view returns(uint length){\n        return trips.length;    \n    }\n\n    function getCarriers() public view returns(CarriersInterface) {\n        return carriers;\n    }\n    \n    function setEnabled(bool _enabled) public {\n        require(trips.length > 0 && trips[tripsId[msg.sender]].addr == msg.sender, \"Only contract Trip can call this method\");\n        trips[tripsId[msg.sender]].enabled = _enabled;\n    }\n\n    function emitCarrier(bool isNew, address _companyWallet, bytes32 _company, bytes32 _web, uint _index) public{\n        require(address(carriers) == msg.sender, \"Only contract Carriers can call this method\");\n        if(isNew)\n            emit NewCarrier(_companyWallet, _company, _web, _index);\n        else\n            emit CarrierUpdated(_companyWallet, _company, _web, _index);\n    }\n    \n    function createTrip (Trip.TripLoc memory _tripLoc, uint _price,\n    bytes[] memory _schedule, uint16 _places, bytes memory _description,\n    RouteType _routeType, bool _enabled) public {\n        (bool error, string memory message, uint carrierId) = carriers.testCarrier(msg.sender);\n        require (!error, message);\n        \n        Trip newTrip = new Trip(\n            carrierId, trips.length,\n            _tripLoc,\n            _price, _schedule, _places, \n            _description, _routeType, _enabled\n        );\n        carriers.addTrip(carrierId, address(newTrip));\n        tripsId[address(newTrip)] = trips.length;\n        emit TripEvent(address(newTrip), trips.length, \"new\");\n        trips.push( TripStruct(address(newTrip), true, true) );\n    }\n}",
  "sourcePath": "/home/martin/eth-contract/flt-transport/contracts/Transport.sol",
  "compiler": {
    "name": "solc",
    "version": "0.5.1+commit.c8a2cb62.Emscripten.clang"
  },
  "schemaVersion": "3.0.6",
  "updatedAt": "2020-02-27T15:05:41.483Z",
  "devdoc": {
    "methods": {}
  },
  "userdoc": {
    "methods": {}
  }
}