{
  "contractName": "VotingIco",
  "abi": [
    {
      "constant": true,
      "inputs": [
        {
          "name": "",
          "type": "uint256"
        }
      ],
      "name": "proposals",
      "outputs": [
        {
          "name": "description",
          "type": "bytes32"
        },
        {
          "name": "endTime",
          "type": "uint256"
        },
        {
          "name": "result",
          "type": "uint8"
        },
        {
          "name": "actionType",
          "type": "uint8"
        },
        {
          "name": "actionAddress",
          "type": "address"
        },
        {
          "name": "name",
          "type": "bytes32"
        },
        {
          "name": "amount",
          "type": "uint256"
        }
      ],
      "payable": false,
      "stateMutability": "view",
      "type": "function"
    },
    {
      "constant": true,
      "inputs": [
        {
          "name": "",
          "type": "uint256"
        }
      ],
      "name": "participants",
      "outputs": [
        {
          "name": "name",
          "type": "bytes32"
        },
        {
          "name": "addr",
          "type": "address"
        }
      ],
      "payable": false,
      "stateMutability": "view",
      "type": "function"
    },
    {
      "constant": true,
      "inputs": [],
      "name": "owner",
      "outputs": [
        {
          "name": "",
          "type": "address"
        }
      ],
      "payable": false,
      "stateMutability": "view",
      "type": "function"
    },
    {
      "anonymous": false,
      "inputs": [
        {
          "indexed": false,
          "name": "description",
          "type": "bytes32"
        },
        {
          "indexed": false,
          "name": "proposalIndex",
          "type": "uint256"
        },
        {
          "indexed": false,
          "name": "addr",
          "type": "address"
        },
        {
          "indexed": false,
          "name": "vote",
          "type": "uint8"
        }
      ],
      "name": "Vote",
      "type": "event"
    },
    {
      "anonymous": false,
      "inputs": [
        {
          "indexed": false,
          "name": "description",
          "type": "bytes32"
        },
        {
          "indexed": false,
          "name": "result",
          "type": "bool"
        },
        {
          "indexed": false,
          "name": "proposalIndex",
          "type": "uint256"
        }
      ],
      "name": "FinishVoting",
      "type": "event"
    },
    {
      "anonymous": false,
      "inputs": [
        {
          "indexed": false,
          "name": "description",
          "type": "bytes32"
        },
        {
          "indexed": false,
          "name": "endTime",
          "type": "uint256"
        },
        {
          "indexed": false,
          "name": "actionType",
          "type": "uint8"
        },
        {
          "indexed": false,
          "name": "actionAddress",
          "type": "address"
        },
        {
          "indexed": false,
          "name": "name",
          "type": "bytes32"
        },
        {
          "indexed": false,
          "name": "amount",
          "type": "uint256"
        },
        {
          "indexed": false,
          "name": "proposalIndex",
          "type": "uint256"
        }
      ],
      "name": "ProposalCreated",
      "type": "event"
    },
    {
      "constant": true,
      "inputs": [
        {
          "name": "_actionType",
          "type": "uint8"
        },
        {
          "name": "_actionAddress",
          "type": "address"
        },
        {
          "name": "_senderAddress",
          "type": "address"
        }
      ],
      "name": "beforeCreateProposal",
      "outputs": [
        {
          "name": "",
          "type": "bool"
        },
        {
          "name": "",
          "type": "string"
        }
      ],
      "payable": false,
      "stateMutability": "view",
      "type": "function"
    },
    {
      "constant": false,
      "inputs": [
        {
          "name": "_description",
          "type": "bytes32"
        },
        {
          "name": "_durationHours",
          "type": "uint256"
        },
        {
          "name": "_actionType",
          "type": "uint8"
        },
        {
          "name": "_actionAddress",
          "type": "address"
        },
        {
          "name": "_name",
          "type": "bytes32"
        },
        {
          "name": "_amount",
          "type": "uint256"
        }
      ],
      "name": "createProposal",
      "outputs": [],
      "payable": false,
      "stateMutability": "nonpayable",
      "type": "function"
    },
    {
      "constant": true,
      "inputs": [
        {
          "name": "proposalIndex",
          "type": "uint256"
        },
        {
          "name": "senderAddress",
          "type": "address"
        }
      ],
      "name": "beforeVoteInProposal",
      "outputs": [
        {
          "name": "",
          "type": "bool"
        },
        {
          "name": "",
          "type": "string"
        }
      ],
      "payable": false,
      "stateMutability": "view",
      "type": "function"
    },
    {
      "constant": false,
      "inputs": [
        {
          "name": "proposalIndex",
          "type": "uint256"
        },
        {
          "name": "vote",
          "type": "uint8"
        }
      ],
      "name": "voteInProposal",
      "outputs": [],
      "payable": false,
      "stateMutability": "nonpayable",
      "type": "function"
    },
    {
      "constant": true,
      "inputs": [
        {
          "name": "proposalIndex",
          "type": "uint256"
        },
        {
          "name": "senderAddress",
          "type": "address"
        }
      ],
      "name": "beforeFinishProposal",
      "outputs": [
        {
          "name": "error",
          "type": "bool"
        },
        {
          "name": "message",
          "type": "string"
        },
        {
          "name": "votedYes",
          "type": "uint256"
        },
        {
          "name": "votedNo",
          "type": "uint256"
        }
      ],
      "payable": false,
      "stateMutability": "view",
      "type": "function"
    },
    {
      "constant": false,
      "inputs": [
        {
          "name": "proposalIndex",
          "type": "uint256"
        }
      ],
      "name": "finishProposal",
      "outputs": [],
      "payable": false,
      "stateMutability": "nonpayable",
      "type": "function"
    },
    {
      "constant": true,
      "inputs": [
        {
          "name": "index",
          "type": "uint256"
        }
      ],
      "name": "statusOfProposal",
      "outputs": [
        {
          "name": "",
          "type": "address[]"
        },
        {
          "name": "",
          "type": "bytes32[]"
        },
        {
          "name": "",
          "type": "uint8[]"
        }
      ],
      "payable": false,
      "stateMutability": "view",
      "type": "function"
    },
    {
      "constant": true,
      "inputs": [],
      "name": "proposalsLength",
      "outputs": [
        {
          "name": "",
          "type": "uint256"
        }
      ],
      "payable": false,
      "stateMutability": "view",
      "type": "function"
    },
    {
      "constant": true,
      "inputs": [],
      "name": "participantsLength",
      "outputs": [
        {
          "name": "",
          "type": "uint256"
        }
      ],
      "payable": false,
      "stateMutability": "view",
      "type": "function"
    }
  ],
  "bytecode": "0x608060405234801561001057600080fd5b5061281f806100206000396000f3fe6080604052600436106100b4576000357c010000000000000000000000000000000000000000000000000000000090048063013cf08b146100b9578063048bc9ec1461017257806327393278146101f857806335c1d349146102335780634158506a146102b557806344c7c867146102e05780634c9807bb1461030b5780636ca196791461040d5780638da5cb5b146104fa578063bfd6e79f14610551578063c433050714610671578063d035e72f14610750575b600080fd5b3480156100c557600080fd5b506100f2600480360360208110156100dc57600080fd5b8101908080359060200190929190505050610798565b604051808881526020018781526020018660ff1660ff16815260200185600381111561011a57fe5b60ff1681526020018473ffffffffffffffffffffffffffffffffffffffff1673ffffffffffffffffffffffffffffffffffffffff16815260200183815260200182815260200197505050505050505060405180910390f35b34801561017e57600080fd5b506101f6600480360360c081101561019557600080fd5b810190808035906020019092919080359060200190929190803560ff169060200190929190803573ffffffffffffffffffffffffffffffffffffffff1690602001909291908035906020019092919080359060200190929190505050610823565b005b34801561020457600080fd5b506102316004803603602081101561021b57600080fd5b8101908080359060200190929190505050610ae3565b005b34801561023f57600080fd5b5061026c6004803603602081101561025657600080fd5b81019080803590602001909291905050506112d2565b604051808381526020018273ffffffffffffffffffffffffffffffffffffffff1673ffffffffffffffffffffffffffffffffffffffff1681526020019250505060405180910390f35b3480156102c157600080fd5b506102ca611325565b6040518082815260200191505060405180910390f35b3480156102ec57600080fd5b506102f5611332565b6040518082815260200191505060405180910390f35b34801561031757600080fd5b506103876004803603606081101561032e57600080fd5b81019080803560ff169060200190929190803573ffffffffffffffffffffffffffffffffffffffff169060200190929190803573ffffffffffffffffffffffffffffffffffffffff16906020019092919050505061133f565b604051808315151515815260200180602001828103825283818151815260200191508051906020019080838360005b838110156103d15780820151818401526020810190506103b6565b50505050905090810190601f1680156103fe5780820380516001836020036101000a031916815260200191505b50935050505060405180910390f35b34801561041957600080fd5b506104666004803603604081101561043057600080fd5b8101908080359060200190929190803573ffffffffffffffffffffffffffffffffffffffff16906020019092919050505061155e565b604051808515151515815260200180602001848152602001838152602001828103825285818151815260200191508051906020019080838360005b838110156104bc5780820151818401526020810190506104a1565b50505050905090810190601f1680156104e95780820380516001836020036101000a031916815260200191505b509550505050505060405180910390f35b34801561050657600080fd5b5061050f611e00565b604051808273ffffffffffffffffffffffffffffffffffffffff1673ffffffffffffffffffffffffffffffffffffffff16815260200191505060405180910390f35b34801561055d57600080fd5b5061058a6004803603602081101561057457600080fd5b8101908080359060200190929190505050611e26565b60405180806020018060200180602001848103845287818151815260200191508051906020019060200280838360005b838110156105d55780820151818401526020810190506105ba565b50505050905001848103835286818151815260200191508051906020019060200280838360005b838110156106175780820151818401526020810190506105fc565b50505050905001848103825285818151815260200191508051906020019060200280838360005b8381101561065957808201518184015260208101905061063e565b50505050905001965050505050505060405180910390f35b34801561067d57600080fd5b506106ca6004803603604081101561069457600080fd5b8101908080359060200190929190803573ffffffffffffffffffffffffffffffffffffffff1690602001909291905050506121e2565b604051808315151515815260200180602001828103825283818151815260200191508051906020019080838360005b838110156107145780820151818401526020810190506106f9565b50505050905090810190601f1680156107415780820380516001836020036101000a031916815260200191505b50935050505060405180910390f35b34801561075c57600080fd5b506107966004803603604081101561077357600080fd5b8101908080359060200190929190803560ff16906020019092919050505061246f565b005b6004818154811015156107a757fe5b90600052602060002090600602016000915090508060000154908060010154908060020160009054906101000a900460ff16908060020160019054906101000a900460ff16908060020160029054906101000a900473ffffffffffffffffffffffffffffffffffffffff16908060030154908060040154905087565b6000606061083286863361133f565b915091508115819015156108e1576040517f08c379a00000000000000000000000000000000000000000000000000000000081526004018080602001828103825283818151815260200191508051906020019080838360005b838110156108a657808201518184015260208101905061088b565b50505050905090810190601f1680156108d35780820380516001836020036101000a031916815260200191505b509250505060405180910390fd5b506000610e10880242019050600460e0604051908101604052808b8152602001838152602001600260ff16815260200189600381111561091d57fe5b81526020018873ffffffffffffffffffffffffffffffffffffffff1681526020018781526020018681525090806001815401808255809150509060018203906000526020600020906006020160009091929091909150600082015181600001556020820151816001015560408201518160020160006101000a81548160ff021916908360ff16021790555060608201518160020160016101000a81548160ff021916908360038111156109cc57fe5b021790555060808201518160020160026101000a81548173ffffffffffffffffffffffffffffffffffffffff021916908373ffffffffffffffffffffffffffffffffffffffff16021790555060a0820151816003015560c082015181600401555050507f5a22095404761c56fdc0a2e7cf9111a91ff494b817685d5b0c34ddc0f134c50e89828989898960016004805490500360405180888152602001878152602001866003811115610a7b57fe5b60ff1681526020018573ffffffffffffffffffffffffffffffffffffffff1673ffffffffffffffffffffffffffffffffffffffff16815260200184815260200183815260200182815260200197505050505050505060405180910390a1505050505050505050565b60006060600080610af4853361155e565b9350935093509350831583901515610ba7576040517f08c379a00000000000000000000000000000000000000000000000000000000081526004018080602001828103825283818151815260200191508051906020019080838360005b83811015610b6c578082015181840152602081019050610b51565b50505050905090810190601f168015610b995780820380516001836020036101000a031916815260200191505b509250505060405180910390fd5b50808211610bb6576000610bb9565b60015b600486815481101515610bc857fe5b906000526020600020906006020160020160006101000a81548160ff021916908360ff1602179055508082111561125e5760006003811115610c0657fe5b600486815481101515610c1557fe5b906000526020600020906006020160020160019054906101000a900460ff166003811115610c3f57fe5b1415610e16576000610c90600487815481101515610c5957fe5b906000526020600020906006020160020160029054906101000a900473ffffffffffffffffffffffffffffffffffffffff166126c6565b141515610d05576040517f08c379a000000000000000000000000000000000000000000000000000000000815260040180806020018281038252601e8152602001807f54686973207061727469636970616e7420616c7265616479206578697374000081525060200191505060405180910390fd5b60036040805190810160405280600488815481101515610d2157fe5b9060005260206000209060060201600301548152602001600488815481101515610d4757fe5b906000526020600020906006020160020160029054906101000a900473ffffffffffffffffffffffffffffffffffffffff1673ffffffffffffffffffffffffffffffffffffffff16815250908060018154018082558091505090600182039060005260206000209060020201600090919290919091506000820151816000015560208201518160010160006101000a81548173ffffffffffffffffffffffffffffffffffffffff021916908373ffffffffffffffffffffffffffffffffffffffff16021790555050505061125d565b60016003811115610e2357fe5b600486815481101515610e3257fe5b906000526020600020906006020160020160019054906101000a900460ff166003811115610e5c57fe5b1415610f845760006001610eaf600488815481101515610e7857fe5b906000526020600020906006020160020160029054906101000a900473ffffffffffffffffffffffffffffffffffffffff166126c6565b0390506003600160038054905003815481101515610ec957fe5b9060005260206000209060020201600382815481101515610ee657fe5b9060005260206000209060020201600082015481600001556001820160009054906101000a900473ffffffffffffffffffffffffffffffffffffffff168160010160006101000a81548173ffffffffffffffffffffffffffffffffffffffff021916908373ffffffffffffffffffffffffffffffffffffffff1602179055509050506003805480919060019003610f7d9190612773565b505061125c565b60026003811115610f9157fe5b600486815481101515610fa057fe5b906000526020600020906006020160020160019054906101000a900460ff166003811115610fca57fe5b141561107c57600485815481101515610fdf57fe5b906000526020600020906006020160020160029054906101000a900473ffffffffffffffffffffffffffffffffffffffff1673ffffffffffffffffffffffffffffffffffffffff166108fc60048781548110151561103957fe5b9060005260206000209060060201600401549081150290604051600060405180830381858888f19350505050158015611076573d6000803e3d6000fd5b5061125b565b60038081111561108857fe5b60048681548110151561109757fe5b906000526020600020906006020160020160019054906101000a900460ff1660038111156110c157fe5b141561125a576000809054906101000a900473ffffffffffffffffffffffffffffffffffffffff1673ffffffffffffffffffffffffffffffffffffffff166323b872dd600160009054906101000a900473ffffffffffffffffffffffffffffffffffffffff1660048881548110151561113657fe5b906000526020600020906006020160020160029054906101000a900473ffffffffffffffffffffffffffffffffffffffff1660048981548110151561117757fe5b9060005260206000209060060201600401546040518463ffffffff167c0100000000000000000000000000000000000000000000000000000000028152600401808473ffffffffffffffffffffffffffffffffffffffff1673ffffffffffffffffffffffffffffffffffffffff1681526020018373ffffffffffffffffffffffffffffffffffffffff1673ffffffffffffffffffffffffffffffffffffffff1681526020018281526020019350505050600060405180830381600087803b15801561124157600080fd5b505af1158015611255573d6000803e3d6000fd5b505050505b5b5b5b5b7fb89b889fb44aa067abcdcd537d53a8d8e84eb6ffa00368dd937318c80d77e75e60048681548110151561128e57fe5b906000526020600020906006020160000154828411876040518084815260200183151515158152602001828152602001935050505060405180910390a15050505050565b6003818154811015156112e157fe5b90600052602060002090600202016000915090508060000154908060010160009054906101000a900473ffffffffffffffffffffffffffffffffffffffff16905082565b6000600380549050905090565b6000600480549050905090565b60006060600061134e856126c6565b9050600061135b856126c6565b14156113a35760016040805190810160405280601a81526020017f596f7520617265206e6f7420696e207061727469636970616e740000000000008152509250925050611556565b600060038111156113b057fe5b8660038111156113bc57fe5b1480156113ca575060008114155b156114115760016040805190810160405280601e81526020017f54686973207061727469636970616e7420616c726561647920657869737400008152509250925050611556565b6001600381111561141e57fe5b86600381111561142a57fe5b1480156114375750600081145b1561147e5760016040805190810160405280601f81526020017f54686973206973206e6f74207061727469636970616e742061646472657373008152509250925050611556565b6001600381111561148b57fe5b86600381111561149757fe5b1480156114aa5750600260038054905011155b15611518576001606060405190810160405280602281526020017f4d696e696d616c20636f756e74206f66207061727469636970616e747320697381526020017f20320000000000000000000000000000000000000000000000000000000000008152509250925050611556565b60006040805190810160405280600281526020017f6f6b00000000000000000000000000000000000000000000000000000000000081525092509250505b935093915050565b600060606000806000611570866126c6565b90506000809050600080905060008090506000600380549050905060008090505b808211156117e65760048c8154811015156115a857fe5b906000526020600020906006020160050160006003838154811015156115ca57fe5b906000526020600020906002020160010160009054906101000a900473ffffffffffffffffffffffffffffffffffffffff1673ffffffffffffffffffffffffffffffffffffffff1673ffffffffffffffffffffffffffffffffffffffff16815260200190815260200160002060000160009054906101000a900460ff16156117d9578280600101935050600160048d81548110151561166557fe5b9060005260206000209060060201600501600060038481548110151561168757fe5b906000526020600020906002020160010160009054906101000a900473ffffffffffffffffffffffffffffffffffffffff1673ffffffffffffffffffffffffffffffffffffffff1673ffffffffffffffffffffffffffffffffffffffff16815260200190815260200160002060000160019054906101000a900460ff1660ff1614156117165784806001019550505b600060048d81548110151561172757fe5b9060005260206000209060060201600501600060038481548110151561174957fe5b906000526020600020906002020160010160009054906101000a900473ffffffffffffffffffffffffffffffffffffffff1673ffffffffffffffffffffffffffffffffffffffff1673ffffffffffffffffffffffffffffffffffffffff16815260200190815260200160002060000160019054906101000a900460ff1660ff1614156117d85783806001019450505b5b8080600101915050611591565b50600085141561183e57600184846040805190810160405280601a81526020017f596f7520617265206e6f7420696e207061727469636970616e74000000000000815250919098509850985098505050505050611df7565b8a60048054905011151561189a57600184846040805190810160405280601781526020017f50726f706f73616c20646f6573206e6f74206578697374000000000000000000815250919098509850985098505050505050611df7565b600260048c8154811015156118ab57fe5b906000526020600020906006020160020160009054906101000a900460ff1660ff1614151561192257600184846040805190810160405280601381526020017f566f74696e67206861732066696e697368656400000000000000000000000000815250919098509850985098505050505050611df7565b60048b81548110151561193157fe5b90600052602060002090600602016001015442111580156119525750818114155b156119a557600184846040805190810160405280601681526020017f566f74696e67206973206e6f742066696e697368656400000000000000000000815250919098509850985098505050505050611df7565b600260038111156119b257fe5b60048c8154811015156119c157fe5b906000526020600020906006020160020160019054906101000a900460ff1660038111156119eb57fe5b148015611a2e575060048b815481101515611a0257fe5b9060005260206000209060060201600401543073ffffffffffffffffffffffffffffffffffffffff1631105b15611a8157600184846040805190810160405280600f81526020017f4c6f77204554482062616c616e63650000000000000000000000000000000000815250919098509850985098505050505050611df7565b600380811115611a8d57fe5b60048c815481101515611a9c57fe5b906000526020600020906006020160020160019054906101000a900460ff166003811115611ac657fe5b148015611c08575060048b815481101515611add57fe5b9060005260206000209060060201600401546000809054906101000a900473ffffffffffffffffffffffffffffffffffffffff1673ffffffffffffffffffffffffffffffffffffffff166370a08231600160009054906101000a900473ffffffffffffffffffffffffffffffffffffffff166040518263ffffffff167c0100000000000000000000000000000000000000000000000000000000028152600401808273ffffffffffffffffffffffffffffffffffffffff1673ffffffffffffffffffffffffffffffffffffffff16815260200191505060206040518083038186803b158015611bcb57600080fd5b505afa158015611bdf573d6000803e3d6000fd5b505050506040513d6020811015611bf557600080fd5b8101908080519060200190929190505050105b15611c5b57600184846040805190810160405280600f81526020017f4c6f7720464c542062616c616e63650000000000000000000000000000000000815250919098509850985098505050505050611df7565b60016003811115611c6857fe5b60048c815481101515611c7757fe5b906000526020600020906006020160020160019054906101000a900460ff166003811115611ca157fe5b148015611cae5750600281145b15611d285760018484606060405190810160405280602881526020017f4d696e696d616c20636f756e74206f6620766f7465642070617274696369706181526020017f6e74732069732032000000000000000000000000000000000000000000000000815250919098509850985098505050505050611df7565b816003805490500382111515611dad5760018484606060405190810160405280603181526020017f436f756e74206f6620766f746564207061727469636970616e7473206d75737481526020017f206265206d6f7265207468616e20353025000000000000000000000000000000815250919098509850985098505050505050611df7565b600084846040805190810160405280600281526020017f6f6b0000000000000000000000000000000000000000000000000000000000008152509190985098509850985050505050505b92959194509250565b600260009054906101000a900473ffffffffffffffffffffffffffffffffffffffff1681565b606080606083600480549050111515611ea7576040517f08c379a00000000000000000000000000000000000000000000000000000000081526004018080602001828103825260128152602001807f50726f706f73616c206e6f74206578697374000000000000000000000000000081525060200191505060405180910390fd5b6060600380549050604051908082528060200260200182016040528015611edd5781602001602082028038833980820191505090505b5090506060600380549050604051908082528060200260200182016040528015611f165781602001602082028038833980820191505090505b5090506060600380549050604051908082528060200260200182016040528015611f4f5781602001602082028038833980820191505090505b509050600080905060008090505b8060038054905011156121cd57600489815481101515611f7957fe5b90600052602060002090600602016005016000600383815481101515611f9b57fe5b906000526020600020906002020160010160009054906101000a900473ffffffffffffffffffffffffffffffffffffffff1673ffffffffffffffffffffffffffffffffffffffff1673ffffffffffffffffffffffffffffffffffffffff16815260200190815260200160002060000160009054906101000a900460ff16156121c05760038181548110151561202c57fe5b906000526020600020906002020160010160009054906101000a900473ffffffffffffffffffffffffffffffffffffffff16858381518110151561206c57fe5b9060200190602002019073ffffffffffffffffffffffffffffffffffffffff16908173ffffffffffffffffffffffffffffffffffffffff16815250506003818154811015156120b757fe5b90600052602060002090600202016000015484838151811015156120d757fe5b90602001906020020181815250506004898154811015156120f457fe5b9060005260206000209060060201600501600060038381548110151561211657fe5b906000526020600020906002020160010160009054906101000a900473ffffffffffffffffffffffffffffffffffffffff1673ffffffffffffffffffffffffffffffffffffffff1673ffffffffffffffffffffffffffffffffffffffff16815260200190815260200160002060000160019054906101000a900460ff1683838151811015156121a157fe5b9060200190602002019060ff16908160ff168152505081806001019250505b8080600101915050611f5d565b50838383965096509650505050509193909250565b6000606060006121f1846126c6565b9050600081141561223e5760016040805190810160405280601a81526020017f596f7520617265206e6f7420696e207061727469636970616e740000000000008152509250925050612468565b8460048054905011151561228e5760016040805190810160405280601281526020017f50726f706f73616c206e6f7420657869737400000000000000000000000000008152509250925050612468565b600260048681548110151561229f57fe5b906000526020600020906006020160020160009054906101000a900460ff1660ff1614151561230a5760016040805190810160405280601181526020017f50726f706f73616c2066696e69736865640000000000000000000000000000008152509250925050612468565b60048581548110151561231957fe5b906000526020600020906006020160010154421015156123755760016040805190810160405280601681526020017f54696d6520666f7220766f74696e67206973206f7574000000000000000000008152509250925050612468565b60048581548110151561238457fe5b906000526020600020906006020160050160008573ffffffffffffffffffffffffffffffffffffffff1673ffffffffffffffffffffffffffffffffffffffff16815260200190815260200160002060000160009054906101000a900460ff161561242a5760016040805190810160405280601581526020017f596f752061726520616c726561647920766f74656400000000000000000000008152509250925050612468565b60006040805190810160405280600281526020017f6f6b00000000000000000000000000000000000000000000000000000000000081525092509250505b9250929050565b6000606061247d84336121e2565b9150915081158190151561252c576040517f08c379a00000000000000000000000000000000000000000000000000000000081526004018080602001828103825283818151815260200191508051906020019080838360005b838110156124f15780820151818401526020810190506124d6565b50505050905090810190601f16801561251e5780820380516001836020036101000a031916815260200191505b509250505060405180910390fd5b50600160048581548110151561253e57fe5b906000526020600020906006020160050160003373ffffffffffffffffffffffffffffffffffffffff1673ffffffffffffffffffffffffffffffffffffffff16815260200190815260200160002060000160006101000a81548160ff021916908315150217905550826004858154811015156125b657fe5b906000526020600020906006020160050160003373ffffffffffffffffffffffffffffffffffffffff1673ffffffffffffffffffffffffffffffffffffffff16815260200190815260200160002060000160016101000a81548160ff021916908360ff1602179055507f09859833479d3666edeeab8dc08198cf10941655b46111c955f390c6610a983360048581548110151561264f57fe5b906000526020600020906006020160000154853386604051808581526020018481526020018373ffffffffffffffffffffffffffffffffffffffff1673ffffffffffffffffffffffffffffffffffffffff1681526020018260ff1660ff16815260200194505050505060405180910390a150505050565b600080600090505b806003805490501115612768578273ffffffffffffffffffffffffffffffffffffffff1660038281548110151561270157fe5b906000526020600020906002020160010160009054906101000a900473ffffffffffffffffffffffffffffffffffffffff1673ffffffffffffffffffffffffffffffffffffffff16141561275b576001810191505061276e565b80806001019150506126ce565b50600090505b919050565b8154818355818111156127a05760020281600202836000526020600020918201910161279f91906127a5565b5b505050565b6127f091905b808211156127ec576000808201600090556001820160006101000a81549073ffffffffffffffffffffffffffffffffffffffff0219169055506002016127ab565b5090565b9056fea165627a7a72305820f14f42ba496e7e514805eb6eef2e6d2c5340feddb0b9d2f565146e8e432d13b50029",
  "source": "pragma solidity ^0.5.1;\n\nimport \"./SafeMath.sol\";\nimport \"./FloteaToken.sol\";\n\ncontract VotingIco {\n    FloteaToken token;\n    address transportAddress;\n    event Vote(bytes32 description, uint proposalIndex, address addr, uint8 vote);\n    event FinishVoting(bytes32 description, bool result, uint proposalIndex);\n    event ProposalCreated(bytes32 description, uint endTime, ActionType actionType, address actionAddress, bytes32 name, uint amount, uint proposalIndex);\n    \n    enum ActionType {add_voter, remove_voter, transfer_eth, transfer_flt}\n\n    struct VoteStatus {\n        bool voted;\n        uint8 vote; // 0 no 1 yes 2 resignation\n    }\n    \n    struct Proposal {\n        bytes32 description;\n        uint endTime;\n        uint8 result; // 0 no 1 yes 2 notFinished\n        ActionType actionType; // 0 add 1 remove participant 2 transfer ETH 3 transfer FLT\n        address payable actionAddress; // Add/Remove participant or transfer address\n        bytes32 name;  // name of added participant\n        uint256 amount; // amount of transfered Wei\n        mapping(address => VoteStatus) status;\n    }\n\n    struct Participant {\n        bytes32 name;\n        address addr;\n    }\n    \n    struct ParticipantVote {\n        bytes32 name;\n        address addr;\n        uint8 vote;\n    }\n        \n    address payable public owner;\n    Participant[] public participants;\n    Proposal[] public proposals;\n    \n    /*\n    constructor(address[] memory _participates, bytes32[] memory names) public {\n        \n        require(_participates.length == names.length, \"Count of participates and names must be same\");\n        require(_participates.length > 2, \"Count of participates must be more than 2\");\n        \n        for(uint i = 0; _participates.length > i; i++){\n            participants.push(Participant( names[i], _participates[i] ));\n        }\n        participants.length = _participates.length;\n    }\n    */\n\n    function beforeCreateProposal(ActionType _actionType, address payable _actionAddress, address _senderAddress) public view returns(bool, string memory) {\n        uint index = findParticipantIndex(_actionAddress);\n        if(findParticipantIndex(_senderAddress) == 0)\n            return(true, \"You are not in participant\");\n        if(_actionType == ActionType.add_voter && index != 0)\n            return(true, \"This participant already exist\");\n        if(_actionType == ActionType.remove_voter && index == 0)\n            return(true, \"This is not participant address\");\n        if(_actionType == ActionType.remove_voter && participants.length <= 2)\n            return(true, \"Minimal count of participants is 2\");\n        return(false, \"ok\");\n    }\n    \n    function createProposal( bytes32 _description, uint _durationHours, ActionType _actionType, address payable _actionAddress, bytes32 _name, uint _amount) public {\n        (bool error, string memory message) = beforeCreateProposal(_actionType, _actionAddress, msg.sender);\n        require (!error, message);\n\n        uint time = now + (_durationHours * 1 hours);\n        proposals.push(\n            Proposal(_description, time, 2,  _actionType, _actionAddress, _name, _amount)\n        );\n        emit ProposalCreated(_description, time, _actionType, _actionAddress, _name, _amount, proposals.length-1);\n    }\n    \n    function beforeVoteInProposal (uint proposalIndex, address senderAddress) public view returns(bool, string memory) {\n        uint index = findParticipantIndex(senderAddress);\n        if(index == 0)\n            return(true, \"You are not in participant\");\n        if(proposals.length <= proposalIndex)\n            return(true, \"Proposal not exist\");\n        if(proposals[proposalIndex].result != 2)\n            return(true, \"Proposal finished\");\n        if(now >= proposals[proposalIndex].endTime)\n            return(true, \"Time for voting is out\");\n        if(proposals[proposalIndex].status[senderAddress].voted)\n            return(true, \"You are already voted\");\n        return(false, \"ok\");\n    }\n\n    function voteInProposal (uint proposalIndex, uint8 vote) public{\n        (bool error, string memory message) = beforeVoteInProposal(proposalIndex, msg.sender);\n        require (!error, message);\n        proposals[proposalIndex].status[msg.sender].voted = true;\n        proposals[proposalIndex].status[msg.sender].vote = vote;\n        emit Vote(proposals[proposalIndex].description, proposalIndex, msg.sender, vote);\n    }\n\n    function beforeFinishProposal (uint proposalIndex, address senderAddress) public view \n    returns(bool error, string memory message, uint votedYes, uint votedNo) {\n        uint index = findParticipantIndex(senderAddress);\n        uint _votedYes = 0;\n        uint _votedNo = 0;\n        uint _voted = 0;\n        uint _carrierVotersLength = participants.length;\n        \n        for(uint i = 0; _carrierVotersLength > i; i++){\n            if( proposals[proposalIndex].status[participants[i].addr].voted ){\n                _voted++;\n                if(proposals[proposalIndex].status[participants[i].addr].vote == 1)\n                    _votedYes++;\n                if(proposals[proposalIndex].status[participants[i].addr].vote == 0)\n                    _votedNo++;\n            }\n        }\n\n        if(index == 0)\n            return(true, \"You are not in participant\", _votedYes, _votedNo);\n        if(proposals.length <= proposalIndex)\n            return(true, \"Proposal does not exist\", _votedYes, _votedNo);\n        if(proposals[proposalIndex].result != 2)\n            return(true, \"Voting has finished\", _votedYes, _votedNo);\n        if(now <= proposals[proposalIndex].endTime && _carrierVotersLength != _voted)\n            return(true, \"Voting is not finished\", _votedYes, _votedNo);\n        if(proposals[proposalIndex].actionType == ActionType.transfer_eth && address(this).balance < proposals[proposalIndex].amount)\n            return(true, \"Low ETH balance\", _votedYes, _votedNo);\n        if(proposals[proposalIndex].actionType == ActionType.transfer_flt && token.balanceOf(transportAddress) < proposals[proposalIndex].amount)\n            return(true, \"Low FLT balance\", _votedYes, _votedNo);\n        if(proposals[proposalIndex].actionType == ActionType.remove_voter && _carrierVotersLength == 2)\n            return(true, \"Minimal count of voted participants is 2\", _votedYes, _votedNo);\n        if(_voted <= participants.length - _voted) // Minimum participants on proposal\n            return(true, \"Count of voted participants must be more than 50%\", _votedYes, _votedNo);\n        return(false, \"ok\", _votedYes, _votedNo);\n    }\n    \n    function finishProposal(uint proposalIndex) public {\n        (bool error, string memory message, uint votedYes, uint votedNo) = beforeFinishProposal(proposalIndex, msg.sender);\n        require (!error, message);\n\n        proposals[proposalIndex].result = votedYes > votedNo? 1 : 0;\n\n        if(votedYes > votedNo){\n            if(proposals[proposalIndex].actionType == ActionType.add_voter){ // Add participant\n                require(findParticipantIndex(proposals[proposalIndex].actionAddress) == 0, \"This participant already exist\");\n                participants.push( Participant(proposals[proposalIndex].name, proposals[proposalIndex].actionAddress));\n            } \n            else if (proposals[proposalIndex].actionType == ActionType.remove_voter) { // Remove participant\n                uint index = findParticipantIndex(proposals[proposalIndex].actionAddress) - 1;\n                participants[index] = participants[participants.length-1]; // Copy last item on removed position and\n                participants.length--; // decrease length\n            } \n            else if (proposals[proposalIndex].actionType == ActionType.transfer_eth) { // Transfer ETH\n                proposals[proposalIndex].actionAddress.transfer(proposals[proposalIndex].amount);\n            }\n            else if (proposals[proposalIndex].actionType == ActionType.transfer_flt) { // Transfer FLT\n                token.transferFrom(transportAddress, proposals[proposalIndex].actionAddress, proposals[proposalIndex].amount);\n            }\n        }\n        emit FinishVoting(proposals[proposalIndex].description, votedYes > votedNo, proposalIndex);\n    }\n\n    function statusOfProposal (uint index) public view returns (address[] memory, bytes32[] memory, uint8[] memory) {\n        require(proposals.length > index, \"Proposal not exist\");\n\n        address[] memory addr = new address[](participants.length);\n        bytes32[] memory name = new bytes32[](participants.length);\n        uint8[] memory vote = new uint8[](participants.length);\n        uint pom = 0;\n        for(uint i = 0; participants.length > i; i++){\n            if(proposals[index].status[participants[i].addr].voted){\n                addr[pom] = participants[i].addr; \n                name[pom] = participants[i].name;\n                vote[pom] = proposals[index].status[participants[i].addr].vote;\n                pom++;\n            }\n        }\n        \n        return (addr, name, vote);\n    }\n\n    function proposalsLength () public view returns (uint) {\n        return proposals.length;\n    }\n\n    function participantsLength () public view returns (uint) {\n        return participants.length;\n    }\n    \n    function findParticipantIndex(address addr) private view returns (uint) {\n        for(uint i = 0; participants.length > i; i++){\n            if(participants[i].addr == addr)\n            return i+1;\n        }\n        return 0;\n    }\n\n}",
  "sourcePath": "/home/martin/eth-contract/flt-transport/contracts/VotingIco.sol",
  "compiler": {
    "name": "solc",
    "version": "0.5.1+commit.c8a2cb62.Emscripten.clang"
  },
  "schemaVersion": "3.0.6",
  "updatedAt": "2020-02-27T15:05:41.494Z",
  "devdoc": {
    "methods": {}
  },
  "userdoc": {
    "methods": {}
  }
}